:020000040800F2
:1000000000090020E58E0008B18D0008B38D0008BE
:10001000B58D0008B78D0008B98D000800000000FC
:10002000000000000000000000000000BB8D000880
:10003000BD8D000800000000BF8D0008C18D0008C4
:10004000018F0008018F0008018F0008018F000850
:10005000018F0008018F0008018F0008018F000840
:10006000018F0008018F0008018F0008018F000830
:10007000018F0008018F0008018F0008018F000820
:10008000018F0008018F0008018F0008018F000810
:10009000C38D0008018F0008018F00085D22000851
:1000A000018F0008018F0008018F0008018F0008F0
:1000B000018F0008CF8D0008F18D0008018F000826
:1000C000018F0008018F0008018F0008018F0008D0
:1000D000018F0008018F0008018F0008018F0008C0
:1000E000BB510008018F0008C78D000810B50B4CEC
:1000F00000224421204600F037FF04F12801A079B6
:1001000001F01DF8002804D10720BDE8104001F0DF
:10011000E5B910BD0249034802F06FBA201D002066
:10012000FC1D00203C1D00202DE9F14F90B0DFF8B0
:10013000C04A00224021204600F016FFDFF8B48AB2
:100140000B224146601C02F0B9FA002528468DF8C2
:100150000800834600900C9006468246109800786E
:10016000242805D14FF0010A504660702846A0703F
:100170005046C00703D503208DF8140009E0284637
:100180008DF8140005E00C980121B940084380B2B5
:100190000C9010989DF81410475C380000F0B08166
:1001A000A7F141001A2802D3012000F0C5BE08467D
:1001B000401C8DF8140006AA05A9109802F0BAFA9E
:1001C000002802D1022000F0B7BE069802F0ECFB36
:1001D000CDE9080102F00FFC02F016FC81465FFA3F
:1001E00089F9484602F046FC0146069802F052FCA6
:1001F000DFF8041A02F0C2FC02F0D6FB02F02AFD7E
:1002000002F002FC80B23946472903D04D2900F0A4
:100210009C80E1E04946032942D9091F2AD0891F61
:1002200023D0C91F022956D9C91E012968D9083906
:100230001BD0891E19D0083932D0891E65D0C91E3D
:1002400065D0891F63D0091F14D0491E052972D9B2
:10025000C91F73D0133926D00A3901293ED9891E06
:1002600003D0491E012946D91BE2002802D1002DE6
:1002700050D10125002784F80090B9F11C0F05D05A
:10028000B9F11E0F02D0B9F15C0F5BD1002802D08A
:100290000A2840F00682494640182070384651E04E
:1002A000002D37D10225012784F80190B9F1260FDE
:1002B00048D1142806D01E2804D0282802D032287D
:1002C00040F0EF8149460A2290FBF2F0643040187A
:1002D0006070002036E00227617133E0002802D10F
:1002E000032721712EE004270A2840F0DA81B9F1B2
:1002F0005A0F1ED1D5E10527C9F15E01A17021E099
:100300000627C9F11501E1701CE007271AE008274C
:10031000002D02D0182000F00FBE0325B9F1310FD7
:1003200002D10020A07104E00A2840F0BA81012027
:10033000A071002006E00927E17103E00A270028E8
:1003400040F0AF81002802D13EE0002802D0172003
:1003500000F0F2BD4846022808D9C01E022813D971
:10036000401F012823D9163840F09B810B27B9F193
:10037000000F03D0B9F1010F26D002E00320207254
:1003800022E084F808901FE00C27B9F1030F05D094
:100390001AD3B9F1050F07D003D315E01020A072CE
:1003A00012E02020A0720FE00020A0720CE00D27C8
:1003B000B9F1080F03D0B9F1090F03D004E04020D0
:1003C000607201E0002060720C983841C0077FF530
:1003D000DAAE152000F0B0BD462F18D0492F1AD044
:1003E0004A2F21D04B2F28D04C2F2FD04E2F31D039
:1003F000502F38D0522F3AD0532F3CD0542F3ED0CC
:10040000582F49D0592F4FD05A2F57D049E10027A4
:100410000698E0605BE0012706982061009840F0B4
:100420000100C0B2009052E0022706986061009877
:1004300040F00200C0B2009049E003270698A06196
:10044000009840F00400C0B2009040E0042784F817
:100450001C903CE00527DDE9080102F0CCFA02F02F
:10046000D3FA206233E00627069860622FE0072760
:100470000698A0622BE008270698E06227E009278B
:100480000698DFF8BC1A02F007FC02D8262000F01C
:1004900053BD84F830901AE00A27069804F1300121
:1004A00048604BF0010B12E00B27069804F1300175
:1004B00088604BF0020B5FFA8BFB08E00C27069874
:1004C00004F13001C8604BF0040B5FFA8BFB30463F
:1004D0003841C00702D5192000F02EBD40F261302E
:1004E0003841C00707D50698002102F0E7FB02D289
:1004F000042000F021BD0120B8400643B6B248E612
:10050000BBF1000F02D0002D00D10225304680063D
:1005100007D5206ADFF82C1A884202DB1B2000F086
:100520000BBD5046C00703D53046C00715D4B1E116
:10053000A07801280AD1022D22D1607850281FD03E
:1005400000281DD03046C0071AD4A3E198F8010056
:10055000002815D13046C0070FD5E07801280FD10B
:10056000E06802F021FA4FF06632DFF8DC3902F081
:10057000B7FB02F087FCE06002E0D8F81000E06012
:10058000F00502D4D8F80C00E0622078042805D1E8
:10059000304640066AD54FF6BF70064060790028A5
:1005A00002D0012808D00FE000200B9001200A9013
:1005B00002208DF815000EE002200B9000200A901A
:1005C00001208DF8150006E001200B9002200A9012
:1005D00000208DF81500E078012818D1002714E0DC
:1005E00058463841C0070FD504EB8709D9F83400C5
:1005F00002F0DAF94FF06632DFF84C3902F070FBA6
:1006000002F040FCC9F834007F1C032FE8DB032D07
:1006100008D1A079012805D19BF0040F02D0252034
:1006200000F08ABC0C2208F128010DA802F056F84F
:100630000C9880050DD5E079072827DA98F8061080
:100640000246914205D00DA900F079FD002800F086
:10065000628420780A2802D05C2864D08DE0BBF147
:10066000000F00F0668216F0500002D11C2000F04E
:1006700063BC606A02F098F902F0BDF902F0C4F9B7
:100680008DF808009DF80800072802DB1D2000F007
:1006900053BC207F142807D0022802D13046000620
:1006A00002D5142000F048BC4FF6AF7006409DF80C
:1006B0000800002803D0401E8DF8080002E0E07911
:1006C0008DF8080004F110019DF8080000F037FDD6
:1006D000002800F02084002704E0D9F83400C9F88D
:1006E00010007F1C032F80F2B08058463841C007AD
:1006F000F7D504EB8709207F1428EED108EB87019A
:10070000C869496B02F0C6F9D9F8341002F0C2F991
:10071000C9F81000022FE4D1D8F8401002F0BAF95D
:10072000C9F81000DDE7BBF1000F00F002820027DE
:1007300003E0406BC9F834007F1C032F80F28580F2
:1007400004EB870908EB870059463941C907F0D502
:100750000DA9C06951F8271002F09CF9D9F834109E
:1007600002F098F9C9F83400022FE5D1D8F840100A
:1007700002F090F9C9F83400DEE7032D39D0BBF15F
:10078000000F36D0002707E0D9F83400D16902F015
:10079000C1FBC9F834007F1C032F2ADA58463841C0
:1007A000C00706D408EB8700C06904EB87014863E3
:1007B000F1E720783528EED004EB870908EB8702B3
:1007C00020790028E0D10DA951F82700516B02F0E3
:1007D000A1FBD9F8341002F09DFB0146C9F8341092
:1007E000022FD8D1D8F8400002F094FBC9F83400A9
:1007F000D1E7207801461C2904D01E2902D03529D2
:100800002CD022E01C2804F1100105D1062000F0B4
:1008100096FC002806D17EE3072000F090FC00281B
:1008200000F07983BBF1000F0ED00027032F0CDA04
:1008300058463841C00705D408EB8700C06904EB6F
:10084000870108617F1CF1E7002562781346502B71
:100850000BD1BBF1000F10D01F206DE360780100B9
:10086000F3D00128F1D01E2066E3022D05D110003F
:100870000BD1BBF1000F00D100255046C00740F15D
:1008800066814FF6DE70064064E1E068002102F008
:1008900083FB01D116204FE3012A10D0022A13D086
:1008A000032A13D08C2A00F03B818D2A00F0368178
:1008B0008E2A00F035818F2A00F03081DDE7BBF110
:1008C000000FDAD10D46D8E74AF0040ABBF1000F59
:1008D00000F02F8101200B9900FA01F10A9A904053
:1008E00040EA01071BEA070F01D1202024E30B98FF
:1008F00004EB80000890406B0B9908EB8101C969FB
:1009000002F0C8F804900A9804EB80000790406B4E
:100910000A9908EB8101C96902F0BCF803903046DE
:10092000000640F194804FF67F7006400C2204F1DF
:10093000340108F11C0002F03DFB002800F00581A5
:10094000E07801280BD1A06A02F02EF84FF0663251
:10095000DFF8F43502F0C4F902F094FAA062A76A55
:10096000384602F021F80022DFF8E03502F0B8F94D
:10097000CDE90001384602F017F8DDE9002302F066
:10098000AFF9CDE900010499084602F0F7F802F04A
:100990000BF802460B46DDE9000102F03DFBCDE914
:1009A00000010399084602F0E9F801F0FDFF024654
:1009B0000B46DDE9000102F02FFB02F063FA002193
:1009C00002F07CF901D22220B6E201F0EDFF02F044
:1009D000E3FBCDE900010399049801F056FF01F013
:1009E000E3FF02460B46DDE9000102F04DFC81F019
:1009F000004102F047FA07466078032801D187F0EA
:100A00000047A06A002102F059F904D287F000479C
:100A100080F00040A0624FF07C590398394602F004
:100A2000ADF80146049802F035F8494602F0A6F800
:100A3000089908610498394602F0A0F8039902F079
:100A400069FA494602F09AF80799086115E7009893
:100A5000384201D123206FE24FF6F1700640E07872
:100A6000012818D1002714E000983841C0070FD59D
:100A700004EB8709D9F8100001F096FF4FF06632B9
:100A8000DFF8C43402F02CF902F0FCF9C9F81000C8
:100A90007F1C032FE8DB03980799096901F0FAFF2F
:100AA00001460F4604980899096901F0F3FF394699
:100AB00001F0EBFE8146079801690898006901F092
:100AC000E4FE0746A7624846394601F0E3FF01F01D
:100AD0006BFF21F0004102F0D5F9DFF8741402F049
:100AE000DBF83FF6CAAEDFF86C1402F0D5F82CD96B
:100AF00001F05AFF02460B46CDE90023384601F0CB
:100B000053FFDFF85424DFF8543402F0E9F8DDE94C
:100B1000002302F0E5FCBFF4B0AE16E04AF0100A84
:100B20008E2B01D08F2B01D14AF0080ABBF1000FA8
:100B300001D11A2000E20C2204F1340108F11C005A
:100B400002F038FA00287FF498AE2120F4E14FF645
:100B5000DE400640002D02D04EF2FF300640002E4F
:100B600001D02420E8E100220C2107A800F0FCF9C4
:100B70005046C00724D50C986FF04901084204D1B3
:100B80002078352803D0002801D01020D4E1D8F8EF
:100B90000C00089098F8090098F8081008438DF8A0
:100BA0002400214607A802F0B3FC050006D10C2260
:100BB00004F1340108F11C0001F090FD2846BBE16E
:100BC000DFF89C0390F8480080072ED56078012854
:100BD00005D0022803D0032801D04AF0400ABBF117
:100BE000000F0BD0022D09D14AF0800A1DE000BF92
:100BF000641D0020201D00200000C84298F8090054
:100C0000102812D198F80000012803D0022801D042
:100C1000032805D15046400607D54AF0200A04E0D3
:100C20005046400601D44AF0200A206AC8F818004D
:100C3000A07888F80100002805D09DF8240040F035
:100C400008008DF82400E068C8F810000790D8F874
:100C50000C00E16A02F0A0F902D15046800608D5E6
:100C600098F80900010001D002F0C1FCE06AC8F860
:100C70000C005046400602D4D8F80C00089004F14D
:100C80003006307888F81400A07A98F809100246E7
:100C9000914204D002F0ABFCA07A88F809009DF8DC
:100CA000240098F8091008438DF82400607A98F819
:100CB0000810024691420DD002F0D4FC607A010087
:100CC00003D1002088F8080004E098F808100843D1
:100CD00088F808009DF8240098F8081008438DF85B
:100CE00024002078042802D1606A02F0A3FE607913
:100CF00088F80400E07888F80200032D11D1A0796B
:100D000088F80500002801D10020F060F268D8F8CA
:100D10004000114602F040F903D0C8F8402001F02D
:100D200058FCE07998F806100246914209D088F8FC
:100D300006000C220DA908F1280001F0CFFC01F0FB
:100D400048FC207988F8030020780A280CD01C2859
:100D500020D01E281ED0262836D028283AD05C283D
:100D60003ED0662846D04DE004F110019DF8080001
:100D700000F02DF998F806009DF80810884241D13E
:100D80000C2204F1100108F1280001F0A7FC01F089
:100D900020FC37E09DF8240040F001008DF824008D
:100DA000002D04D007A904F1340002F06FFC07A95C
:100DB00004F1100002F06AFC0C2204F1100108F1A9
:100DC0001C0001F08BFC1DE008F11C01062000F066
:100DD000FEF817E008F11C01072000F0F8F811E018
:100DE0000C2204F1340108F1340001F077FC01F029
:100DF000F0FB07E000220C2108F1340000F0B4F809
:100E000001F0E7FB607888F800000146502951D0D6
:100E1000022D4FD10025012905D107A904F1340085
:100E200002F034FC38E000280BD19DF8240040F09B
:100E300001008DF8240007A904F1340002F026FC1B
:100E40002AE0022901D0032919D14FEA9A0000F0C3
:100E5000010004909DF8150003900A98C0B202901A
:100E60000B98C0B20190A06A009004F1100308F141
:100E70001C0207A904F1340002F03BFC0CE09DF8D1
:100E8000240040F004008DF82400524607A904F124
:100E9000340002F0F6FD0546280007D10C2204F1CB
:100EA000340108F11C0001F019FC03E0012D01D10F
:100EB000FFF730F9207A88F8070000283BD002F0CD
:100EC000B9FF284898F80710032908D100780228AC
:100ED0002ED0082001F0BBFB02F0C9FF28E0012161
:100EE00088F80010002188F8041088F8031088F8AA
:100EF000011088F80610A8F808106421C171017269
:100F000041720078022810D008F12801002000F07A
:100F100016F9002801D107200EE001F05AFB00204D
:100F200002F045FB002002F089FB082000F09AFB4C
:100F3000002088F80700002011B0BDE8F08F000005
:100F400001007F438196980066663940000010409A
:100F50000BD7A33B0100003FFCA9F1D24D62503FEB
:100F6000741C0020E41D002062F30F2262F31F4274
:100F700000B500BF130096469446103928BFA0E87C
:100F80000C50FAD85FEA417C28BF0CC048BF40F83B
:100F9000042BC90728BF20F8022B48BF00F8012BFB
:100FA00000BD000038B504460D4602F043FF502254
:100FB00029465120604300F54070BDE8384003F0F9
:100FC000D7B95022014640F2AE3003F0D1B938B55E
:100FD00004460D4602F02EFF0C2229460D206043E8
:100FE00000F50070BDE8384003F0C2B980B50A21B1
:100FF000002003F0BBF95C22DFF8C8130120BDE834
:10100000084003F0B5B93EB50446E0073BD5DFF82C
:10101000B40300F130010A220A701922CA700022BA
:101020004A708A7001220A71DFF89C238A60DFF817
:101030009C23CA60DFF898230A6100224A614A763D
:10104000DFF89023CA61DFF890230A62FA228A84CB
:101050004FF07E528A6200220A76DFF88013016028
:1010600041608160DFF87813C16001614161DFF8A0
:1010700074138161C1610162DFF86C1341628162A6
:10108000C162FFF7B3FFA0070DD500220C2168460F
:10109000FFF76AFF002504E069462846FFF797FF3F
:1010A0006D1C082DF8DB600713D500214FF440704C
:1010B00003F05CF9002140F2013003F057F9002100
:1010C00040F2513003F052F9002140F2523003F067
:1010D0004DF9200709D5002140F2AE3003F046F962
:1010E000002140F2AF3003F041F937BD38B5044676
:1010F0000D4650225120604300F54071284603F010
:1011000056F9002807D10020287029462046FFF70D
:1011100049FF002032BD012032BD10B504465022E7
:1011200040F2AE3103F043F9002806D100202070D0
:101130002046FFF746FF002010BD012010BD38B546
:1011400004460D460C220D20604300F50071284630
:1011500003F02DF900280AD100220C212846FFF7C0
:1011600003FF29462046FFF732FF002032BD012051
:1011700032BD80B5002003F0F7F80A2809D15C22BF
:101180000121904803F013F9401E8041C043C00F75
:1011900002BD002002BD000070B506460C46204688
:1011A000002101F08BFD01D2042070BD642E4ADBCA
:1011B000643E084608E0401C0A2DC0F20081C0B21F
:1011C000042800F0FC800A3E042815DAF6B2354601
:1011D000032DF0DA03280FD8DFE800F00212212EE9
:1011E000784901EB8505E868214601F0C7FC7F4995
:1011F00001F052FD0FD92C60FFF7F8FE002070BD02
:10120000704901EB85052868214601F0B7FC774954
:1012100001F042FD01D80C2070BDEC60ECE7704E8F
:101220002046314601F0AAFC314601F0A7FC654991
:1012300001EB85018861DFE784F00044614800EB41
:1012400085004462D8E701F0AFFB01F0D4FB01F068
:10125000DBFBC0B2202E00F2B280DFE806F01119ED
:101260001C21263340B0B0B050535659B0B0B0B086
:10127000B0B068798895989B9EA1B0B0A4A9AE0043
:10128000032801DA062070BD4E4981F83000B3E72B
:101290005749C870B0E75649487003F048FAABE7C1
:1012A0005349887003F043FAA6E7464930310A7E75
:1012B000002803D042F0040008769DE702F0FB000E
:1012C000087699E73F4930310A7E002803D042F082
:1012D0004000087690E702F0BF0008768CE73949B5
:1012E00030310A7E002803D042F08000087602E008
:1012F00002F07F000876002003F0B6FE7CE73C4950
:10130000087179E73A48846076E73948C46073E742
:101310002C4930310A7E002803D042F001000876C3
:1013200002E002F0FE00087601F053F964E7254977
:1013300030310A7E002807D0D00601D40A2070BDC3
:1013400042F02000087657E702F0DF00087653E706
:101350001C4930310A7E002803D042F0080008768C
:1013600002E002F0F700087603F0BAFE44E7154900
:1013700030310A7E002803D042F0100008763BE7A7
:1013800002F0CF00087637E71949487634E7184865
:10139000C46131E7164804622EE7154988842BE7BB
:1013A0001348846228E71248046102F0E1F823E759
:1013B0000F48446102F0DCF81EE7112070BD0320E5
:1013C00070BD0000741C00200AD7233C6F12033B41
:1013D00000007A440000C8410000C8420000F0420A
:1013E0000000704200A00C470000BEC201BADB49F9
:1013F000A41C002080B5FFF7BCFE002809D10720FF
:1014000000F06CF8FF20FFF7FEFDBDE8014000F0A2
:101410007BB901BD010001D104207047012801D131
:101420000820704710207047010001D1202070472C
:10143000012801D14020704780207047010001D170
:1014400002207047012801D104207047082070470E
:1014500010B50446242004F037F8204604F04FF875
:101460003D20BDE8104004F02FB857A004F03DB86F
:1014700080B55D2004F028F8BDE80140F5E753A0F1
:1014800004F033B852A004F030B838B50446002553
:1014900009E054F8250004F0C3F8022D02DA2C20EC
:1014A00004F012F86D1C032DF3DB31BD10B50C46B2
:1014B000FFF7CEFF2046C0B204F021F8BDE810408F
:1014C000D3E738B50C461546FFF7C2FF294620463C
:1014D00004F048F8BDE83140C7E7000010B504004B
:1014E00005D10FF6E000BDE8104003F0FEBF0FF697
:1014F000DC0003F0FAFF2046401E152857D8DFE82D
:1015000000F00B10151A1F24292E33383D42565671
:1015100056565656564C47510FF6B80003F0E5FFA5
:101520004CE00FF6C80003F0E0FF47E00FF6D000F4
:1015300003F0DBFF42E00FF6DC0003F0D6FF3DE0F6
:101540000FF6DC0003F0D1FF38E00FF6E80003F0FF
:10155000CCFF33E00FF6EC0003F0C7FF2EE00FF6F0
:10156000081003F0C2FF29E00FF6081003F0BDFFDA
:1015700024E00FF60C1003F0B8FF1FE00FF6141074
:1015800003F0B3FF1AE00FF61C1003F0AEFF15E0F6
:101590000FF6241003F0A9FF10E00FF6341003F04B
:1015A000A4FF0BE00FF63C1003F09FFF06E00FF6E0
:1015B000481003F09AFF204603F0A1FF02A0BDE807
:1015C000104003F092BF00000D0A00002047000009
:1015D000204D000010B504460FF6301003F085FFD3
:1015E0002046401E082833D8DFE800F0050A0F1413
:1015F000191E23282D000FF61C1003F076FF2AE099
:101600000FF61C1003F071FF25E00FF6201003F019
:101610006CFF20E00FF6281003F067FF1BE00FF6C9
:10162000341003F062FF16E00FF63C1003F05DFF8C
:1016300011E00FF6481003F058FF0CE00FF65010C1
:1016400003F053FF07E00FF65C1003F04EFF02E0DB
:10165000204603F054FFFFF708FF0520BDE81040C7
:1016600001F007B910B504460FF6501003F03DFF26
:10167000641E0A2C3DD8DFE804F0060B10151A1F73
:1016800024292E3338000FF63C1003F02EFF30E0F3
:101690000FF6441003F029FF2BE00FF6501003F073
:1016A00024FF26E00FF6581003F01FFF21E00FF68D
:1016B000581003F01AFF1CE00FF6581003F015FF46
:1016C00017E00FF65C1003F010FF12E00FF6601049
:1016D00003F00BFF0DE00FF6601003F006FF08E0CB
:1016E0000FF6681003F001FF03E00FF6741003F02B
:1016F000FCFEBDE81040BBE60FF6701003F0F5BE2F
:101700000FF6881003F0F1BE2DE9F041DFF89C469A
:1017100004F1300529780020FFF7C8FEE9780120A0
:10172000FFF7C4FE69780220FFF7C0FEA978032006
:10173000FFF7BCFE287E800800F001010420FFF7BF
:10174000B5FE287E800900F001010520FFF7AEFEFE
:10175000287EC1090620FFF7A9FE29790A20FFF794
:10176000A5FE0322A9680B20FFF7ABFE0322E96860
:101770000C20FFF7A6FE287E00F001010D20FFF7E8
:1017800095FE287E400900F001011420FFF78EFE2F
:10179000287EC00800F001011520FFF787FE287E93
:1017A000000900F001011620FFF780FE697E172076
:1017B000FFF77CFE0322E9691820FFF782FE03226F
:1017C000296A1920FFF77DFEA98C1A20FFF76EFE0B
:1017D0000322A96A1B20FFF774FE002229691E203C
:1017E000FFF76FFE002269691F20FFF76AFE0021E4
:1017F0002020FFF75BFE6425002602E00A35EDB2EB
:10180000761C042E38DA00270AE0032204EB870056
:10181000416A81F000417819C0B2FFF752FE7F1C87
:10182000032FEBDA30460328F9D8DFE800F0040C88
:101830001503F4E7E9E7032254F827107819C0B23A
:10184000FFF73FFEEBE7032204EB8700C16878193E
:10185000C0B2FFF736FEE2E70322904604EB8700B2
:101860008069DFF84C1503F017FF014642467819EE
:10187000C0B2FFF726FED2E7BDE8F081E0B50FF673
:10188000580003F032FEDFF82C15684600F0B5FE74
:101890006846FFF7FAFD3A2003F016FEDFF8180558
:1018A000407903F02CFEFFF7E3FD07BD10B584B0CF
:1018B00000240DE004F13600C0B203F020FE3A200F
:1018C00003F002FE6846FFF7E0FDFFF7D1FD641C60
:1018D000E4B2082C1ADA69462046FFF730FC0028EB
:1018E00003D10720FFF7FAFD1FBD5CA003F0FDFD4B
:1018F0002046062802D0072804D0DBE758A003F0D2
:10190000F4FDDCE757A003F0F0FDD8E70FF2D0704C
:1019100003F0EBFDDFF8A44404F13400FFF7B5FD5C
:10192000FFF7A6FD0FF2C07003F0DFFD206C03F09F
:1019300077FEFFF79DFDFFF7A1FF1FBD10B50FF26A
:10194000B07003F0D2FDDFF8744420788C2808DBF7
:1019500045A003F0CAFD20787630C0B203F0CFFD79
:1019600001E003F0CCFDFFF78AFDA0793630C0B26C
:1019700003F0C5FDFFF783FD20791130C0B203F0FD
:10198000BEFDFFF77CFDA078C0F11500C0B203F0EA
:10199000B6FDFFF774FDE0785A30C0B203F0AFFD3A
:1019A000FFF76DFD6078C0F15E00C0B203F0A7FDE7
:1019B000E079002810D0FFF765FDE07901460229A3
:1019C00008D0032902D01E2904D005E0302003F0FE
:1019D0007BFD01E003F093FDFFF754FD607A0028E2
:1019E0000CD0102802D0202804D00AE0332003F0C5
:1019F0006BFD06E0342003F067FD02E0352003F0C4
:101A000063FDFFF73FFD207A002803D0382003F064
:101A10005BFD02E0392003F057FD14A003F065FDE3
:101A2000207D03F06CFD12A003F05FFD206903F040
:101A30000FFEBDE810401BE538B504460D460DA06D
:101A400003F053FD204603F05AFD3D2003F03CFD1A
:101A5000284603F03FFDBDE8314006E55B47000046
:101A6000323800003330000033382E00205400009C
:101A700020460000244E000038B504460D463E20A6
:101A800003F022FD204603F025FD3A2003F01CFD63
:101A90002846BDE8324021E510B504460FF25860F3
:101AA00003F023FD204603F015FDFFF7E1FC0FF2E4
:101AB0005C6003F01AFD2C2003F006FD0F2003F0FC
:101AC0001EFD2C2003F000FD802003F018FDBDE872
:101AD0001040CDE42DE9F04389B00C22B84906A8A6
:101AE00000F0FCFD06A903A800F087FD3C2003F0F0
:101AF000EBFCB14C2078002810D0012832D002280D
:101B000035D0042829D008280DD010280FD020283F
:101B10001FD0402830D0802849D04CE00FF2F4503C
:101B200003F0E3FC47E09DA003F0DFFC43E0A07876
:101B300000060ED40FF2E45003F0D7FCA078C007E3
:101B400003D5302003F0C0FC35E0312003F0BCFCAD
:101B500031E093A003F0C9FC2DE00FF2C85003F070
:101B6000C4FC28E00FF2C45003F0BFFC23E00FF2E6
:101B7000C45003F0BAFC1EE00FF2C05003F0B5FCF5
:101B8000A078010703D5332003F09EFC13E0410742
:101B900009D5800603D5312003F096FC0BE03020F8
:101BA00003F092FC07E0322003F08EFC03E00FF21A
:101BB000945003F09AFC7D4D95F83460F00702D5FF
:101BC000207B002824D10027E9461FE0DFF8EC81C4
:101BD00008EB8700816A406B01F09CF9014649F8E7
:101BE0002710022F05D1D8F8400001F093F949F8E9
:101BF0002700F00709D40DF10C0858F8270059F810
:101C0000271000F047FF48F827007F1C032FDDDB7B
:101C1000F00704D50FF2345003F067FC03E00FF235
:101C2000345003F062FC03A8FFF72FFC95F8340052
:101C300080070ED50FF2245003F057FC04F04CF847
:101C400003F05DFC2C2003F03FFC03F031FC03F0BB
:101C500056FC54A003F049FC03F0C8F903F0F8FC6B
:101C600003F08BFA064600F0D2FA054603F00DFAAF
:101C7000074645EA060038432ED00FF2E84003F04D
:101C800034FC002F02D0502003F01EFC002E10D098
:101C90003046C00702D5582003F016FC30468007B6
:101CA00002D5592003F010FC700702D55A2003F02A
:101CB0000BFC002D10D02846C00702D5522003F09F
:101CC00003FC2846800702D5482003F0FDFB680787
:101CD00002D5532003F0F8FB207B010002D0401E08
:101CE000207314E020787C21084202D01D2020734C
:101CF00001E009202073E07A002801D10120E07280
:101D00000FF2684003F0F1FB6846FFF7BEFBE07A94
:101D1000010002D0401EE07237E020787C210842AA
:101D200002D01320E07201E00920E0720FF244407B
:101D300003F0DBFBE07903F0E2FB2C2003F0C4FBB3
:101D4000207A03F0DCFB2C2003F0BEFB607A03F06A
:101D5000D6FB01F01AFC044601F064FC054655EA86
:101D6000040012D010A003F0C0FB002C08D0E00744
:101D700003D5532003F0A8FB02E0432003F0A4FBAB
:101D8000E80702D5462003F09FFB3E2003F09CFBB2
:101D9000FFF76BFB09B0BDE8F083000052756E00E1
:101DA0004A6F67007C463A007C413A00741C002070
:101DB00000006145081E0020E41D0020201D0020B9
:101DC000FC1D00206F6B0D0A000000006572726F31
:101DD000723A2000457870656374656420636F6DA6
:101DE0006D616E64206C657474657200426164207C
:101DF0006E756D62657220666F726D6174000000B1
:101E0000496E76616C69642073746174656D656E8A
:101E10007400000056616C7565203C2030000000A5
:101E200053657474696E672064697361626C65647C
:101E30000000000056616C7565203C2033207573EE
:101E400065630000454550524F4D20726561642026
:101E50006661696C2E205573696E672064656661E2
:101E6000756C7473000000004E6F742069646C65BB
:101E700000000000416C61726D206C6F636B0000AC
:101E8000486F6D696E67206E6F7420656E61626C5D
:101E9000656400004C696E65206F766572666C6FD4
:101EA00077000000537465702072617465203E20D5
:101EB00033306B487A0000004D6F64616C206772AC
:101EC0006F75702076696F6C6174696F6E000000C9
:101ED000556E737570706F7274656420636F6D6D8D
:101EE000616E6400556E646566696E656420666542
:101EF0006564207261746500496E76616C69642066
:101F000067636F64652049443A000000414C4152C8
:101F10004D3A200048617264206C696D697400005C
:101F2000536F6674206C696D6974000041626F7252
:101F30007420647572696E67206379636C65000054
:101F400050726F6265206661696C20696E697461A8
:101F50006C00000050726F6265206661696C2063DE
:101F60006F6E746163740000486F6D696E67206600
:101F700061696C207265736574000000486F6D695B
:101F80006E67206661696C20646F6F7200000000EC
:101F9000486F6D696E67206661696C2070756C6C46
:101FA0006F666600486F6D696E67206661696C20B8
:101FB000617070726F616368000000005B4D534791
:101FC0003A000000526573657420746F20636F6E71
:101FD00074696E7565000000272448277C27245803
:101FE0002720746F20756E6C6F636B00436175748E
:101FF000696F6E3A20556E6C6F636B65640000000C
:10200000456E61626C65640044697361626C65640D
:1020100000000000436865636B20446F6F7200002E
:10202000436865636B204C696D6974730000000040
:1020300050676D20456E6400526573746F72696EEF
:10204000672064656661756C747300005265737413
:102050006F72696E67207370696E646C6500000052
:10206000536C656570696E67000000000D0A477269
:10207000626C20312E3166205B27242720666F7228
:102080002068656C705D0D0A000000005B484C50D4
:102090003A242420242320244720244920244E208D
:1020A00024783D76616C20244E783D6C696E652005
:1020B000244A3D6C696E652024534C5020244320F3
:1020C0002458202448207E2021203F206374726CF5
:1020D0002D785D0D0A0000005B5052423A0000006E
:1020E0005B4739323A0000005B544C4F3A00000025
:1020F0005B47433A470000005B5645523A312E3168
:10210000662E32303137303830313A005B4F505420
:102110003A00000049646C6500000000486F6C6480
:102120003A000000486F6D6500000000416C61726C
:102130006D000000436865636B000000446F6F72C0
:102140003A000000536C6565700000007C4D506FD4
:10215000733A00007C57506F733A00007C42663A35
:10216000000000007C506E3A000000007C57434F96
:102170003A0000007C4F763A0000000010B5DFF80E
:1021800018452021204603F00AFE4021204603F096
:1021900006FE8021204603F002FE4FF480712046A7
:1021A00003F0FDFD0C2320220521002003F00AFE90
:1021B0000C2340220621002003F004FE0C23802281
:1021C0000721002003F0FEFD0C234FF4807208214C
:1021D000002003F0F7FD01222021204603F0ECFD52
:1021E00001224021204603F0E7FD01228021204604
:1021F00003F0E2FD01224FF48071204603F0DCFD84
:10220000002211461720BDE8104003F0F6BD002063
:102210000146DFF8882413689B0600D50121136866
:102220005B0601D541F0020113681B0601D541F0A0
:1022300004011268D20501D541F0080100290CD033
:102240000A46D20700D401200A46920701D440F082
:102250000200490701D440F00400704780B5FFF741
:10226000D6FF002817D00146C90702D501F06DFC42
:1022700011E00146490706D5DFF82404017841F052
:102280000201017007E0800705D5DFF8140401782A
:1022900041F0080101704FF4F070BDE8024003F016
:1022A000FEBD38B5044600250AE02078002806D097
:1022B0002046FDF739FF01462046FFF7DDFB6D1C88
:1022C000022D0CDA21462846FEF710FF0028ECD13B
:1022D0000020207007212046FFF7CEFBEFE731BD3D
:1022E00070B584B0044601208DF8000000256078A8
:1022F00001000AD024291ED043291CD047291AD016
:102300004A2907D0582916D051E0FFF7F9F90020E3
:1023100004B070BDDFF88C633178080002D020294A
:1023200040F0F080A0783D2801D00320F0E720465F
:10233000FDF7FAFEECE7A178002901D00320E7E7DA
:10234000242806D0432811D047280CD0582820D064
:10235000DDE7DFF8500300781821084240F0D28012
:10236000FFF7D2F9D3E7FFF7E9FAD0E7CD4E31789E
:10237000022905D101F0E9FB0520FFF773F9C6E753
:10238000002940F0BF80022030700420FFF76AF976
:10239000BDE7C44E30780128B9D10020C0460028DE
:1023A0002DD10320FFF75EF928463070AFE7BD4E10
:1023B00031780A0002D0012940F0A48023280BD0F4
:1023C000482811D0492845D04E2800F09380522843
:1023D00067D053282FD0AAE0A078002801D003208E
:1023E00096E7FFF763FA92E7AF4890F84800C00617
:1023F00001D405208CE70020C046002801D00D2024
:1024000086E704203070A078002812D1284601F019
:1024100020FB707800287FF47AAF2846307002F0F5
:102420000CF8A07800287FF472AF2046FFF739FF40
:102430006DE703206CE7A0784C2805D1E0785028A0
:1024400002D12079002801D0032061E7802000F02C
:10245000FEF85CE702208DF80000A078002806D185
:102460002046FEF75AFE2046FFF716FB4FE70320F3
:102470008DF80000A0783D2801D0032048E79DF8A2
:102480000000215C204400F8031C9DF80000411C62
:102490008DF80010205C0028F1D12046FEF791FD58
:1024A00035E7A078532808D1E078542805D1207961
:1024B0003D2802D1A079002801D0032028E76079C7
:1024C00023280DD0242802D02A280DD010E0012086
:1024D000FEF799FD0920FFF7C5F801F036FB16E776
:1024E0000220FEF790FDF5E7FF20FEF78CFDF1E7F7
:1024F00003200DE702208DF80000A078002808D006
:10250000002913D0082003E721462846FFF794FA54
:102510006D1C022DBFF6FBAE21462846FEF7E6FDF8
:102520000028F1D10720FEF7D9FFF1E7012501AA24
:102530006946204600F0FEF8002833D09DF80000E0
:10254000411C8DF80010205C3D2801D00320DFE6FF
:10255000002D20D09DF800009DF80010625C091A43
:1025600062549DF800104A1C8DF80020615C00291F
:10257000F2D12046FDF7D8FD05007FF4C9AE0198E1
:1025800000F012FA00F037FA00F03EFA2146C0B22D
:10259000FEF708FDBBE602AA6946204600F0CAF82D
:1025A000002801D10220B3E69DF80000205C00283D
:1025B00004D101983D4900F06FFB01D80320A7E644
:1025C00002990C4603F074FC2146C0B2FEF7E4FD0C
:1025D0009EE680B501F02EFC00203249087301BD53
:1025E00010B50C4650F8240000F03AFA2E4951F884
:1025F0002410BDE8104003F04FB8F8B504460D466E
:10260000002606E031462846FFF7EAFF44F8270097
:10261000761CF6B23746032FF4DBF1BD80B50246D7
:10262000002301E05B1CDBB2032B0EDA52F823001F
:10263000002100F031FB06D31B4901EB8301496AFD
:1026400000F03CFBEED2012002BD002002BD144987
:102650000A7810430870704711490A7822EA00008E
:1026600008707047124908707047002010490870C0
:10267000704710490A781043087070470E490A786D
:1026800010430870704700200A4908707047002006
:10269000094908707047000000080140080801401F
:1026A000F51D0020E41D0020741C002001007F4364
:1026B000F61D0020F71D0020F81D002062B38B07D7
:1026C00008D0521E11F8013B00F8013B00F02480B5
:1026D0008B07F6D1830740F0208000BF103A07D364
:1026E00030B4B1E83810103AA0E83810F9D230BC54
:1026F000530724BFB1E80810A0E8081044BF51F800
:10270000043B40F8043BD20724BF31F8022B20F8E9
:10271000022B44BF0B7803707047083A07D3B1E827
:102720000810083A40F8043B40F804CBF7D25307AE
:10273000E4E700002DE9F04781468846144698F802
:10274000000009EB000515F8011B00262D2903D117
:10275000012615F8011B03E02B2901D115F8011BF7
:10276000002007460246034608E0002B00D07F1EEB
:1027700000EB800001EB400015F8011B3039C9B2B5
:102780000A2907DA521CD2B2092AEEDB002BF3D158
:102790007F1CF1E7FE2903D1002B01D10123EBE7D8
:1027A000002A01D100203EE000F064F982460021B9
:1027B00000F0F2FB28D00AE0504600F0F5F8724A2B
:1027C000724B00F08DFA00F05DFB8246BF1C7FB2B9
:1027D000384610F1010FEFDB00280AD5504600F013
:1027E000E3F86B4A6B4B00F07BFA00F04BFB824640
:1027F0000AE0012808DB6848514600F0BFF982462C
:102800007F1E7FB2012FF6DA002E04D08AF0004A34
:10281000C4F800A001E0C4F800A0A5EB0900401E28
:1028200088F800000120BDE8F08770B50C465B49D0
:1028300000F0A4F900F0B8F803F05CFB00F0E4F855
:102840000546574E06E020000DD101F010FB322066
:1028500003F0ADFB2846451E80B2002808D07078F2
:102860000028F0D070BD01F00EFBB0788007EED5E7
:1028700070BD10B5044602E0012003F098FB20462D
:10288000441E80B20028F7D110BD38B50C46014671
:1028900000F074F905462046214600F06FF92946FC
:1028A00000F038FB00F080F800F076FCBDE8344022
:1028B00000F0E8BAF8B5044600252E460EE054F8BC
:1028C00026703846002100F067FB06D0394600F03C
:1028D00055F9294600F01EFB0546761C032EEEDB5B
:1028E000284600F061F800F057FC00F0CBFA0546EE
:1028F0004FF07E50294602F0CFFE0646002707E043
:1029000054F82700314600F039F944F827007F1CBD
:10291000032FF5DB2846F2BD2DE9F84304460D46AA
:10292000204E002729E055F827201046002100F00E
:1029300033FB21D054F82700114602F0ADFE00F021
:1029400033F821F0004102460B4690469946304646
:1029500000F02AF842464B4600F0C2FD0CD354F872
:10296000270055F8271002F097FE00F01DF821F01F
:10297000004100F087FA06467F1C032FD3DB304668
:10298000BDE8F283000000007B14AE47E17A843F8B
:102990009A9999999999B93F000020410000A04166
:1029A000E41D00209976967E5FF0FF0C1CEAD05162
:1029B00014BF614506E0C110400721F0E04101F17C
:1029C0006051704779B900F0004100020AD0B0FAB6
:1029D00080FC00FA0CF001F16051A1EB0C5101EB0D
:1029E000D0214005704741020CBF40F4E0016FF078
:1029F00000010020704783B50021684603F0F6FA15
:102A0000DDE9000103B000BDF446400D40EAC120FD
:102A1000490006D200F014F8004248BF6FF00040B1
:102A2000604700F00DF84FF0004188428CBF084627
:102A300040426047400D40EAC120490080F00D80CF
:102A400040F00040490DA1F58061491C05D4D1F149
:102A50001F0154BFC840C01770474FF000007047B7
:102A6000002840F10980F446404200F005F850F09B
:102A700000406047002800BF0AD0B0FA80F18840CB
:102A8000D1F19D01C905020672F1004241EB10200F
:102A90007047000090EA010F44BF81F0004100F050
:102AA00041BA00BF431A4FF000423EBF5340C01A24
:102AB000C91800BFD3095FEAD05C13EB400F34BFE5
:102AC000B3EB410F40E07CEBD1530CD342EA012140
:102AD00022D8D1EB402009D3400A28BF5FEA500139
:102AE00040EBCC507047401A15D04002B0FA80F24B
:102AF000521C9040400A4FEA3C23B3EB026384BF70
:102B000000EB730007E040F400001A16DB07C2F187
:102B10000102D04018437047182BFCDC31FA03F255
:102B200002FA03F3591A38BF42F00102D2EB4020F7
:102B30003CBF4000ACF1010C5FEACC5CC20572F115
:102B400000414CEB5020704713EB400F0FD24B006D
:102B500009D0ACEBD153022B03DB4902172BDDDD8F
:102B600070479143401A4300D5D10020704713EBC2
:102B7000410FD0D36FF0000070470000FF2212EA2F
:102B8000D05C1DBF12EAD153944593422BE09C4484
:102B9000D30780EA01021A4043EA002043EA0121F8
:102BA000A1FB0030410038BF40007CF17F010BDB0E
:102BB000FE294ADA5B0842EAC15153EA006373F125
:102BC000004C51EB10207047D1F1080CDCF12001D2
:102BD0002FDB5B0810FA01F10B4373F1004120FA7F
:102BE0000CF05041704794451CBF02EAD153934208
:102BF00080EA010202F000421DD0400019D04900D5
:102C000017D05BB9634514D00902B1FA81F399403A
:102C1000BCEB030CC00140F00040C1E70002B0FA79
:102C200080FC10FA0CF0B3EB0C0CC90141F0004130
:102C3000B6E71000704740000AD0490008D010F1F4
:102C4000807F94BF11F1807F02E042F0FF40704727
:102C5000D043704783B50121684603F0C7F9401E91
:102C6000012811D90021684603F0C0F960B101982C
:102C7000DDE90023002847BF002005490020054961
:102C800003F0F2F9CDE90001DDE9000103B000BD78
:102C90000000F0BF0000F03F4FF0807C1CEB400FC5
:102CA00094BF1CEB410F05E040EA010C5FEA4C0CBD
:102CB00001D28142704718BF884270474FF0807C34
:102CC0001CEB400F94BF1CEB410F05E040EA010CE8
:102CD0005FEA4C0C01D28842704718BF81427047AE
:102CE000B0B581EA030C0CF0004C40F2FF7515EA18
:102CF00011541DBF15EA1357AC42AF4239E0E41935
:102D000023EA455343F48013C90241F0004141EAEC
:102D1000505EC7021100A7FB020200284FF000001E
:102D2000EEFB01204FF00001E3FB072118BF42F04A
:102D30000102401800214941E3FB0E01A4F5806423
:102D40000F0302D252004041494154F101046CDDAD
:102D5000470872F1004250F1000051EB0451A1F517
:102D600080115CBF41EA0C01B0BD4CEA0551002066
:102D7000B0BD05EA1357AC4214BFAF4241E050EA80
:102D8000410E1CBF52EA430E02E061460020B0BD76
:102D900024423C441BD15FEA070EF6D0090302BF70
:102DA00001460020AEF1140EB1FA81F7AEEB070434
:102DB00001FA07FE0C37C7F1200100FA07F7C840F7
:102DC0004EEA000E23EA455343F48013A2E733F0A2
:102DD0000043B3FA83F704BFB2FA82FE77440B3F95
:102DE000E41BB7F1200E2FBF02FA0EF3BB40C7F170
:102DF000200E22FA0EFE38BF43EA0E03BA40641CCE
:102E000082E750EA410E14BF52EA430E6FF0000110
:102E10004FF4001717EB430F8ABF194617EB410F0A
:102E2000B5E74CEA05510020B0BDD4F10104B4F17E
:102E300020070FDAC4F12007520828BF42F0010230
:102E400010FA07F501FA07F7E1BF2A43E0403843DB
:102E5000E1400FE0352C98DCC7F1200452EA400233
:102E600020FA07F218BF42F0010231FA07F0A14040
:102E70000A43002172F1004250F1000051EB0C01B5
:102E8000B0BD00004FEAF17CBCF1E04C2CBFBCF5BA
:102E9000001F11E05FEA4C0C34BFBCF17F5F2EE0F5
:102EA0005FEA9C0C4FEA0C1C4FEA3C0CC10071F12C
:102EB00000414CEB50707047C90241EA5051C002CA
:102EC00018BF41F0010141F000414FEA6C50C0F1E0
:102ED0000900212810D240EACC7CCCF1200C11FA58
:102EE0000CF070F10040CCF1200C21FA0CF00CF049
:102EF000004C40EB0C0070474FEACC707047490023
:102F000011F5001F04D84FEACC10FF30C005704700
:102F1000C817704790EA010F44BF81F00041FFF7E6
:102F2000C1BD00BF421A3CBF801A89184FF0004C47
:102F3000C0F3C752FF2A24D0C1F3C75313B3D21A28
:102F4000D2F1190327DD4CEA01214CFA03F321EAFF
:102F50000303D140C20D4CEA0020401834BF20EAE0
:102F60000C004CEA5000D20553EA006373EB0C0CE2
:102F700052EB1020420012F1807F38BF7047C00D25
:102F8000C0057047490212BF9A4200EB5120F8E792
:102F9000D2F11703D9D5704740EA010C5FEA4C0C17
:102FA00007D0884205D14FEA400C1CF1807F98BFC2
:102FB000804270470300002013F0030F09D0521E17
:102FC00022BF13F8010B11F801CBB0EB0C00F3D0CA
:102FD0007047121F22BF53F8040B51F804CB604511
:102FE000F7D0121D0AD200BA9CFA8CFCB0EB0C0090
:102FF00038BF6FF0000088BF01207047521E22BF0B
:1030000013F8010B11F801CBB0EB0C00F6D0521CF9
:1030100008BF104670470000F0B44FF0004591EA39
:10302000030F44BF6B4003F029B800BF841A71EB53
:10303000030604D26E40001BB141121973414FF4D4
:10304000001C1CEB410F34BF7CEB430684E00C0DED
:10305000A4EB1356362E7DDC012E43DC45EAC32358
:1030600043EA525312BFD20292025B08240545EA9A
:10307000C12141EA5051D2EBC020994125D407D15A
:10308000B0FA80F610FA06F164D00020203608E08D
:10309000B1FA81F6B140C6F1200220FA02F21143E2
:1030A000B0404FEAF474B4EB465434F001064FEAF2
:1030B00074040AD8D6F50016760D04F00044F040EA
:1030C00061FA06F25040F1404840C00A40EA4150DF
:1030D00021F0004128BF5FEA500550F1000044EBA9
:1030E000D12137E045EAC323DB0A45EAC121C90AF9
:1030F000B6F120050EDD42EA0242120CC5F12006AF
:1031000003FA06F6EB4042EA06056D42984161F18A
:1031100000010DE062FA06F5F240554063FA06FC44
:1031200082EA0C02F3405A406D42904161EB030188
:1031300011F4801F05D1641E620502D06D0040416C
:10314000494121F48011430875F1004350F100001A
:1031500041EB0451F0BC70471CEB410F15D223F03A
:10316000004352EA43060BD04FEA4C0CBCEB410F34
:1031700004D80C0D661E342EB7DDEBE7801A99419A
:1031800050EA410608BF0021E4E708BF1CEB430FEB
:1031900028BF6FF00001DDE740F2FF7C0B0D4DD042
:1031A000634566D230B421EA035141F4801103F241
:1031B000FD3C5FEA5C0C01D300184941890041EAFB
:1031C000907180004FF440140023E202D50AB1F55B
:1031D000100107D46D081DD2091B6419001849415C
:1031E000491BF7D56D080AD20919641B001849411B
:1031F000491BEFD56D08F7D301E0520817D0C0186E
:1032000061419B1AAC4100184941801AA941F4D48C
:1032100052080AD0C01AA1419B186C4100184941BC
:10322000801AA941E9D45208F4D15B1C6C416108B1
:103230004FEA330001EB0C5130BC704750EA0103F8
:10324000FBD030B4B1FA81F311B9B0FA80F41B1994
:103250000B3BB3F120042FBF00FA04F19940C3F1F6
:10326000200420FA04F438BF21439840D3F101032D
:103270009DE76345E1D011F5801FDED850EA41019A
:10328000DBD0D94302F064BF2DE9F04140F2FF7575
:1032900081EA030C0CF0004C15EA11541DBF15EA2D
:1032A0001357AC42AF42E9E0BC41C1F31301C3F391
:1032B0001303801A994143F4801304D2641E400022
:1032C000494180185941C90241EA5051B1FBF3F616
:1032D00003FB1611A2FB0675D7EBC020A94102D251
:1032E000761E80185941C90241EA5051B1FBF3FEE4
:1032F00003FB1E11A2FB0E75D7EBC020A94103D220
:10330000AEF1010E80185941890241EA90517605CB
:1033100046EA8E2EB1FBF3F603FB1611A2FB0675EF
:10332000D7EB8020A94102D2761E80185941C902EC
:1033300041EA50514EEA060EB1FBF3F603FB1611BB
:10334000A2FB0675D7EBC020A94102D2761E8018D9
:103350005941C90241EA5051B1FBF3F703FB171180
:10336000A2FB0735D3EBC020A94167F100070CBFD2
:10337000004247F0010766F3D5274FEA1E31B8082F
:1033800014F5806414DDBD0775F1004250EB0E505A
:1033900051EB045111F5801F5CBF41EA0C01BDE8FF
:1033A000F0814CF07F6141F0E0410020BDE8F08108
:1033B000BD076D0840EA0E5041F48011D4F10104BC
:1033C000B4F120060ADAC4F120060200E04001FA56
:1033D00006F3E1401843B24015430EE0342C14DCF0
:1033E000C6F1200445EA40056D0820FA06F21543AF
:1033F00021FA06F0A1400D43002175F1004250F181
:10340000000051EB0C01BDE8F08100205FEA0C01E7
:10341000BDE8F081CFB992185B41B3FA83F704BFDE
:10342000B2FA82F6BF190B3FB7F120062FBF02FA9E
:1034300006F3BB40C7F1200622FA06F638BF334335
:10344000BA401CB1E419641E2FE77F4231F00041FD
:10345000B1FA81F404BFB0FA80F6A4190B3CB4F1C0
:1034600020062FBF00FA06F1A140C4F1200620FA81
:1034700006F638BF3143A0403C1B16E7AC421ABFEA
:1034800005EA1357AF4214E050EA41061CBF52EA66
:103490004306BFE750EA4107304661461CBF41EA98
:1034A0000551BDE8F08152EA430C08BFC143BDE8B5
:1034B000F08100204FF4001616EB410F98BF16EB79
:1034C000430F08BF16EB410F24BFC14305E016EBC5
:1034D000430F0CBF61464CEA0551BDE8F081000086
:1034E0004FF4001C1CEB410F94BF1CEB430F09E091
:1034F00041EA030C50EA4C0C52EA0C0C03D29942FC
:1035000008BF9042704714BF8B4282427047000050
:1035100038B504460D46E8682060207A40F0040083
:103520002072114890F84800800607D505F1340054
:10353000FFF774F8002801D00F2032BD214605F1B5
:10354000340000F0A3F8094C2078002809D102F0DB
:10355000F2F9002805D02020207001F09AF900F03F
:1035600049FF002032BD00BF741C0020E41D002074
:1035700010B5254C0221204602F004FC042120460F
:1035800002F000FCBDE810400CE02048016889070B
:1035900006D50068400701D502207047012070471A
:1035A0000020704700220221174802F005BC38B500
:1035B000174C6178002919D1010002D1FFF7F2FF01
:1035C00012E0114D102805D100220421284602F0F6
:1035D000F3FB04E001220421284602F0EDFB012266
:1035E0000221284602F0E8FB0020E07231BD10B550
:1035F000044607480078022805D000F01BFC20464E
:10360000BDE81040D3E710BD000801400C080140A0
:10361000E41D002080B54021194802F0B3FBBDE84D
:10362000014006E0002017490968490600D501203D
:10363000704700224021124802F0BEBB10B5124C68
:10364000617800290DD1010002D1FFF7F2FF06E0F9
:10365000400604D501224021094802F0ADFB0020BC
:10366000E07210BD10B5044607480078022805D066
:1036700000F0E0FB2046BDE81040DFE710BD000091
:10368000000C01400C0C0140E41D0020F8B504467C
:103690000D46DFF80865DFF8087597F848008006E2
:1036A00005D53078202802D0204601F0CDFE3078B4
:1036B000022802D1F1BD00F0CFFB00F0D8FB7078FA
:1036C000002815D102F05AF90028F4D129462046E5
:1036D00002F0D6F900280BD197F84800800707D5EB
:1036E000287AC00604D51020BDE8F240FFF77FBF5E
:1036F000F1BD2DE9FB4F86B0164618469DF84C10DB
:1037000050F82140084656F820002146FFF702FCF9
:10371000049008989DF8501050F82150084656F82B
:1037200020002946FFF7F6FB039084F0004485F063
:10373000004506989DF84C1050F821000499FFF7B9
:10374000A9F9804606989DF8501050F82100039979
:10375000FFF7A0F9074620464146FFF70FFA8146DA
:1037600028463946FFF70AFA4946FFF7D3FBFFF729
:103770001BF902460B4692469B4620463946FFF708
:10378000FDF9074628464146FFF7F8F90146384655
:10379000FFF780F9FFF708F952465B4602F0DEFCBE
:1037A000FFF770FB074616980028384610D0DFF860
:1037B000F413FFF771FA1BD8FFF7F6F8DFF8E823E8
:1037C000DFF8E83302F050FCFFF75CFB07460FE040
:1037D000DFF8DC13FFF772FA0AD2FFF7E5F8DFF83B
:1037E000C823DFF8D03302F03FFCFFF74BFB07465E
:1037F000DDF848803846FFF7D7F80022DFF8B83305
:10380000FFF76EFA82468B464046FFF7CDF85246E8
:103810005B46FFF765FA82468B462BF0004BE0488B
:10382000D0F83C904FF080404146FFF7A7F9494659
:10383000FFF730F94946FFF7A1F9FFF7B5F8FFF7B1
:10384000ABFC02460B4650465946FFF71DFD02F001
:10385000EBFCFFF7D9F880B20190002800F0E1807E
:1038600001A80088FFF706F980460798007A00074C
:103870000CD5079800684146FFF780F90799086062
:103880000798007A00F0F700079908723846414619
:1038900001F002FF009006989DF8541050F82100A6
:1038A00056F82110FFF7F6F8414601F0F5FE0590B5
:1038B00000990846FFF762F901464FF08040FFF794
:1038C000E9F807460098FFF76FF8BC4ABC4BFFF7D2
:1038D00007FA804689463846FFF766F80022B94B5A
:1038E00002F0C2FB42464B46FFF7FAF9FFF7CAFA6D
:1038F00002904FF07C503946FFF740F981464FF077
:103900000008012701E07F1CBFB20198874280F2C6
:1039100088805FFA88F8B8F10C0F1EDA0298214609
:10392000FFF72CF9824628464946FFF727F951460A
:10393000FFF7F0FA824620464946FFF71FF9044692
:1039400002982946FFF71AF901462046FFF7A2F828
:103950000446554608F101083EE03846FFF78AF86C
:103960000099FFF70BF9FFF71FF804460D4602F028
:103970008AFCFFF787FA80462046294602F086FC3B
:10398000FFF780FA054608989DF84C1050F821A0E2
:103990009DF8501050F821B058462946FFF7EEF830
:1039A000044650464146FFF7E9F801462046FFF736
:1039B00071F8044650462946FFF7E0F880F00040D1
:1039C000054658464146FFF7D9F801462846FFF715
:1039D00061F805464FF0000804982146FFF79AFA6F
:1039E0009DF84C1046F8210003982946FFF792FAFB
:1039F0009DF8501046F821009DF8540056F820001C
:103A00000599FFF787FA9DF8541046F821000799A9
:103A10003046FFF73BFE6148407800283FF473AF23
:103A200005E00799069809B0BDE8F04F2EE609B009
:103A3000BDE8F08F10B5044658480078022807D03A
:103A400000F0F8F900212046BDE81040FEF7EDBE79
:103A500010BD80B501F08CFB042001F0C3FB0320F6
:103A600001F0C0FB00F003FA4C484078002807D171
:103A7000FCF750FB02F023F9BDE8014001F030BB38
:103A800001BD2DE9F04105460E461746434C20780E
:103A9000022801D1002056E000F0CCF9607800281F
:103AA00027D13846000900F0010800206071F808AD
:103AB00000F0010001F0D8FA01F0E7FA002809D07F
:103AC0000420FEF7CFFD00F0D2F9002001F0CCFA7F
:103AD000022038E031462846FFF7D8FD3A4D012054
:103AE00028700220FEF7B3FD00F0C1F960780028CD
:103AF00001D0022027E020780028F5D1287801287D
:103B00000CD1B8F1000F05D00C2230493048FEF737
:103B1000E5FD05E00520FEF7A5FD01E0012060714F
:103B20000020287001F0A0FA00F0A1F900F022FEB8
:103B300001F0D3FE02F0C3F8FDF7A0FE6179481E44
:103B40008041C043C00FBDE8F08122480078C00624
:103B500000D5704780B51020FEF779FDFFF722FDF4
:103B6000FFF767FD0D4801782C22114203D100793F
:103B70000622104210D0042907D1174800780028E7
:103B800006D10620FEF76EFD02E00320FEF76AFD77
:103B9000BDE8014000F051BC01BD0000E41D002063
:103BA000741C0020BD3706B5182D4454FB2119C0E4
:103BB000BE370635FB2119400000E03F4BDA7D5C43
:103BC0005555C53F00001040F41D0020FC1D00208D
:103BD000081E0020F51D0020F61D00202DE9F041F3
:103BE000DFF86447DFF8640790F84800000708D55D
:103BF00001F0C3FA002804D0012020700720FDF74F
:103C000031FD20788121084205D00220FDF72AFDF0
:103C10000120207011E0002020700020C046002804
:103C200007D0DFF82C07017841F02001017000F087
:103C30001EF9DFF82007FEF734FB00252E4605E0CD
:103C4000FCF772FAFDF74AFC00252E4601F03EFC17
:103C50000746FF2800F0E4804FF0000818282AD01B
:103C6000212834D03F282AD07E282CD0802822D06A
:103C7000842830D0852832D0902837D0912839D068
:103C800092283BD093283DD094283FD0952841D00E
:103C9000962843D0972845D0992847D09A2849D0CC
:103CA0009B284BD09C284DD09D284FD09E2851D08A
:103CB000A02853D056E0BDE8F041FFF746BF0120F1
:103CC000FEF7C5FC50E00220FEF7C1FC4CE00820E6
:103CD000FEF7BDFC48E02020FEF7B9FC44E0207868
:103CE000800641D54020FEF7B2FC3DE00120FEF702
:103CF000C0FC39E00220FEF7BCFC35E00420FEF7F2
:103D0000B8FC31E00820FEF7B4FC2DE01020FEF7EF
:103D1000B0FC29E02020FEF7ACFC25E04020FEF7B7
:103D2000A8FC21E08020FEF7A4FC1DE00120FEF7A6
:103D3000A5FC19E00220FEF7A1FC15E00420FEF727
:103D40009DFC11E00820FEF799FC0DE01020FEF725
:103D500095FC09E02020FEF791FC05E04020FEF7ED
:103D60008DFC01E04FF00108B8F1000F3FF46CAF9B
:103D70000A2F01D00D2F26D100F079F860780028A5
:103D800056D1DFF8D0050021F6B28155E90703D5F9
:103D90000B20FDF7A3FB57E701780A0003D10020B1
:103DA000FDF79CFB50E7242904D1FEF799FAFDF7B3
:103DB00095FB49E72178212211423FF441AF0920C8
:103DC000FDF78CFB40E7002D09D0292F7FF43EAF93
:103DD000284680077FF53AAF05F0FD0536E7212F2D
:103DE000FFF634AF2F2F3FF431AF282F01D102253A
:103DF0002CE73B2F01D1042528E7F6B231464F29A5
:103E000001DB012522E7761CDFF84805A7F16102F6
:103E10001A2A03D2A7F12002425417E7475415E7A4
:103E200000F01AF800F023F8607800283FF40EAF95
:103E3000BDE8F08110B500F00FF8DFF80C4500F098
:103E400016F86078002806D101F075FD0028F6D13B
:103E500020780828F3D010BD80B501F06CFD002853
:103E600004D00220BDE80240FEF7F1BB01BD80B5E1
:103E700000F009F8DFF8D0048078002802D0BDE80F
:103E800001409FE101BD70B5DFF8CC040578DFF893
:103E9000B844002D15D0012020702846FDF79AFB6C
:103EA000012D01D0022D0AD10120FDF7DBFB1020EE
:103EB000FEF7D2FBDFF898040078C006FAD5FEF7CB
:103EC000D4FBDFF88C040578002D00F0E080284654
:103ED000C00602D50120607070BD2846C00704D519
:103EE000FDF7F8FD0120FEF7B7FB15F0E80058D00C
:103EF00020780321084245D12821084211D0A0781A
:103F0000C02108420DD100F0AAFC022020712078C7
:103F1000202806D12846000603D4A07840F080006F
:103F2000A0702078010001D10121A1702946490625
:103F300005D5810603D4A17841F04001A17029463E
:103F4000090704D5E021084201D11020207028463D
:103F5000800617D50620FDF785FBA07801060DD455
:103F60002178402906D1020704D500F0E30040F093
:103F70000200A070802901D040202070A07840F07D
:103F80002000A0702846000608D52078012803D11B
:103F9000A07840F00500A07080202070E820FEF797
:103FA0005BFB284680073BD515F0680035D12078AB
:103FB00040280CD1A078810609D4C10602D5002082
:103FC000207004E0410702D540F00800A07020787E
:103FD000010004D0C10620D5A178C9071DD510283D
:103FE00006D1A07A010003D040F00800A07214E0CE
:103FF0000020207101F09FFC00280BD0A078400623
:1040000008D40020A0700820207000F042FC00F0CE
:10401000F1F902E00020A07020700220FEF71CFBE6
:10402000680734D52078D021084212D0E0780028E3
:104030000FD1A07800060CD401F05EFE2079810734
:1040400003D5A17841F00101A17000F0F9002071C1
:104050001AE0A078000609D50020207101F03DFC8F
:1040600000F088FBFCF756F801F029FEA0788106E5
:1040700007D500F07F0040F00100A07040202070C4
:1040800002E00020A07020700420FEF7E5FAB3489B
:104090000578002D39D0FEF7F6FAE07901462A4678
:1040A000D20700D564212A46920700D50A312A4654
:1040B000520700D50A392A46120700D5491C2A465C
:1040C000D20600D5491EC9B2C82900DBC8210B2978
:1040D00000DA0A21227A13462E46B60600D564235A
:1040E0002E46760600D532232D0600D519230D461F
:1040F000854202D11846904207D0E1712372002018
:10410000E07201F09DFC01F0F7FD95480578002D67
:104110004FD0FEF7BCFA607A01462A46D20700D596
:1041200064212A46920700D50A312A46520700D553
:104130000A392A46120700D5491C2A46D20600D55C
:10414000491EC9B2C82900DBC8210B2900DA0A219F
:104150000A46824206D0207940F008002071617240
:104160000020E072284680060DD5207810280AD15C
:10417000A07A010002D10220A07204E0C10702D59A
:1041800040F00400A07215F0C00012D020780100A9
:1041900002D0182108420CD0724D287A410602D56F
:1041A00000F0BF0601E040F040063046FFF746FA57
:1041B0002E722078FC21084203D0BDE8704000F048
:1041C00068BB70BD70B501F0B6FB002805D1654E27
:1041D000707A317A41EA00040EE0447C0CE02879E0
:1041E000000707D504F03000FFF7E1F9287900F067
:1041F000F7002871FFF747FE534DA878010000F043
:10420000A2806978002940F09E80C107F2D5297804
:10421000C022114262D040070DD40020A872FFF7DF
:10422000C6F90020FFF70AFAA87800F0FD0040F078
:104230000400A870DEE7802911D10B20FDF712FAE7
:104240000020FFF7B4F90020FFF7F8F900F0F5F8C7
:1042500001E0FFF718FE68780028FAD070BD402909
:1042600007D10020C046002803D1A87800F0DF0065
:10427000A870A8780107BDD53A4E717A002914D0EC
:10428000800712D4314890F84800800704D5287977
:1042900040F00800287108E004F03000FFF787F9CB
:1042A00001214FF08040FEF7C0FA307A00280BD091
:1042B000A878800708D404F04000FFF7BFF9012177
:1042C0004FF07E50FEF7B1FAA878810792D440F003
:1042D0001000A8700220FEF7BAF98BE7A87A010057
:1042E0003FF47DAF81070CD51E48407A002805D0E9
:1042F0000020FFF75CF90120A8727BE70020A8727C
:1043000078E70C2108423FF475AF1648407A002840
:1043100010D00A20FDF7A6F90C4890F84800800755
:1043200004D5287940F00800287103E004F030003B
:10433000FFF73DF9A87A000702D50220FEF787F9BA
:104340000020A87256E770BDE41D0020741C0020F8
:10435000F51D0020D01C0020F61D0020F71D0020B8
:10436000F81D0020201D002002F088B802F09BB844
:10437000F8B504460D4616460027002E09E0012038
:1043800029780F18FFB22046FFF7F0FF6D1C641C60
:10439000761E07D07800F2D1F811401E8041C0434C
:1043A000C00FEDE739462046BDE8F440DEE7F8B53A
:1043B00004460D4616460027002E05E00121471849
:1043C000FFB204F8010B761E28460AD0FFF7CCFF97
:1043D0006D1C7900F2D1F911491E8941C943C90FF9
:1043E000EDE7FFF7C1FF874201D10120F2BD0020B8
:1043F000F2BD000010B5DFF8084CDFF8080C217E94
:10440000490704D50122082101F0D6FC03E000226F
:10441000082101F0D1FCDFF8F00BDFF8F01BC978C0
:1044200081732178891E01EBC102D100C910494274
:104430004173BDE8104002F0B6B810B502F0B7F80D
:104440000020DFF8C81B48710146DFF8C44B207814
:10445000FF2809D1DFF8BC2B1278002A04D1DFF83D
:10446000B82B1278802A07D1DFF8AC2B1278042AF7
:1044700002D0FEF7FEF90121607D400701D581F0F1
:104480000101DFF8800B002905D001220821BDE8D9
:10449000104001F091BC00220821BDE8104001F05D
:1044A0008BBC70B5DFF8644B6079002840F01D814B
:1044B000DFF8686BDFF8505BE87B400900F0010231
:1044C0000821304601F078FCE87B800900F0010209
:1044D0001021304601F070FCE87BC20920213046F3
:1044E00001F06AFCA87B800800F00102012130463F
:1044F00001F062FCA87BC00800F0010202213046F6
:1045000001F05AFCA87B000900F0010204213046AA
:1045100001F052FCA87B800800F00100E1788908D6
:1045200001F0010188420AD0E87B800603D5012012
:1045300002F09EF803E04FF0FF3002F099F8A87BFC
:10454000C00800F00100E178C90801F001018842CB
:104550000AD0E87B400603D5012002F011F903E000
:104560004FF0FF3002F00CF9697B012002F046F8B1
:1045700002F03CF801206071686A002840D1607840
:10458000217888425BD0DFF8980A217801EB41025C
:1045900000EB42006862408800EB8000811000EB75
:1045A0005170C010014689B2012002F004F8686A17
:1045B0000188A9830179AA7F0B469A420BD0A9777B
:1045C00001EB810204EB820110312962C9684908BC
:1045D000A96069602960296A0A7C23795A40EA73D4
:1045E00009684079C1402961286A4068696A497947
:1045F000C8406861286A8068696A4979C840A861CA
:10460000DFF8200A0078012801D100F046FD0020E3
:10461000A873286829690A182A60286ADFF8081A26
:10462000C368934214D20423AB73C368D21A2A60BE
:104630000A68037C9B0609D5521E0A6008E0FFF752
:10464000FCFE0420BDE87040FEF701B8521C0A6071
:104650006A686B699A186A60C36893420FD2AB7B31
:1046600043F00803AB73C368D21A6A604A68037CDC
:104670005B0602D5521E4A6001E0521C4A60AA68DD
:10468000AB699A18AA60C36893420FD2AB7B43F020
:104690001003AB73C368D21AAA608A68007C000654
:1046A00002D5501E886001E0501C8860DFF8680960
:1046B0000178042903D1A97B80790840A873A88BCD
:1046C000401EA88380B2002809D1002068622078AB
:1046D000401C2070C0B2062801D100202070A87BA9
:1046E000E1784840A8730020607170BD38B5DFF8EC
:1046F0002C49DFF81859E878800800F00102012100
:10470000204601F059FBE878C00800F001020221C0
:10471000204601F051FBE878000900F00102042175
:10472000204601F049FBBDE8314001F063BFF8B518
:10473000DFF8D8480020E07020710546DFF8EC78FB
:1047400015E0012000FA05F63878304205D02846F9
:10475000FCF760FEE1780843E0707878304205D0DD
:104760002846FCF761FE2179084320716D1C032D5A
:10477000E7DBF1BD38B5FFF760FE00223021DFF83E
:10478000B008FCF7F1FBDFF8804800222821204622
:10479000FCF7EAFB00206062DFF87058A860287020
:1047A00068700120A87000206871FFF7C0FF2879A9
:1047B000E073DFF86848E878800800F00102012122
:1047C000204601F0F9FAE878C00800F00102022161
:1047D000204601F0F1FAE878000900F00102042116
:1047E000204601F0E9FA2879400900F00102082189
:1047F000204601F0E1FA2879800900F00102102139
:10480000204601F0D9FA2879C20920212046BDE8C6
:10481000384001F0D1BA10B5DFF800480121204638
:1048200001F0B0FA0221204601F0ACFA0421204642
:1048300001F0A8FA0821DFF8CC0701F0A3FA08215B
:10484000204601F09FFA1021204601F09BFA20211A
:10485000204601F097FABDE8104001F053BE38B58C
:10486000DFF8A847A568002D0CD0DFF8C407417811
:1048700041F001014170C1690846FEF77FF96861A6
:104880000020A06031BD401CC0B2052800D100202E
:1048900070472DE9F04F89B0DFF87C070079C00739
:1048A000DFF88C4706D59EE30846DFF8601788607E
:1048B00001F026F8DFF854070078DFF85017897800
:1048C000884200F09083DFF844078068002840F0B9
:1048D0005D81DFF844070079400705D501F021F834
:1048E000DFF82817886004E001F025F8DFF81C17CE
:1048F000886008468568002D00F075836078C007E1
:1049000002D50020607045E02078FFF7BCFF2070E2
:10491000DFF8F81600EB800201EB82001030C8606F
:10492000297C0174002105E055F82120D20040F8CF
:104930002120491C0329F7DBE968C900C160E86848
:10494000FEF798F8A060296A00F0A6FE0146E16033
:10495000DFF8E00600F0A0FE206100206060DFF8D4
:10496000B8060079800702D4607800070AD5616A2A
:10497000E1610846FEF702F96861607800F0F7002F
:10498000607007E06869FEF70FF8FEF705FCFEF7B8
:1049900079FAE0610020A0614FF07C50E96900F0F5
:1049A0007BFE0746DFF870060079810728D50220D4
:1049B00020756E69D5F8208038463146FEF7DEF85E
:1049C00001464046FEF766F80021FEF777F913D25C
:1049D000E9694FF08040FEF7D1F84146FEF7CEF886
:1049E00001463046FEF756F8FDF7DEFFFEF7D4FB32
:1049F000FEF748FA6062C9E0A06108466062C5E05F
:104A000000212175296AA162400703D500252846A7
:104A1000606209E000F09FFF0546FDF7C5FFFEF765
:104A2000BBFBFEF72FFA6062DFF8E005806800F05C
:104A3000AFFF80464146FEF7A1F88146DFF8CC057E
:104A4000D0F808A0DAF820B0DAF814002946FEF70A
:104A500021F83946FEF792F85946FEF75BFA4FF017
:104A60007C51FEF78BF806464846DAF81410FEF73C
:104A700025F936D2FEF70EF83946FEF77FF859468B
:104A8000FEF748FAA0620021FEF718F91CD80220B0
:104A90002075DAF81C104FF08040FEF76FF8DAF856
:104AA0002010FEF76BF80146DAF81400FDF7F2FF6C
:104AB000FDF77AFFFEF770FBFEF7E4F960626078BD
:104AC00040F00800607061E048462946FDF7E2FFCB
:104AD0003946FEF753F8E062C4F8208003202075C1
:104AE00054E030460021FEF7D7F84BD25946FEF786
:104AF000E5F844D248462946FDF7CCFF3946FEF793
:104B00003DF8E0623146FEF7D9F815D2C4F82080AE
:104B1000DAF8142010464946FEF73EFA02D1012089
:104B2000207533E0FDF7B6FF3946FEF727F8A16A96
:104B3000FEF7F0F9A06229E0A662E662DAF81C004E
:104B4000FDF732FF00224FF08043FEF7C9F88046A0
:104B500089463046FDF728FF42464B46FEF7C0F82F
:104B600006460F462846FDF71FFF32463B4601F03A
:104B70007BFAFEF711FBFEF785F9206206E00220C2
:104B8000207503E00846A062606A2062DFF89004A6
:104B9000DFF87814497801EB410200EB42000690FF
:104BA000207806990871DFF89054AB464FF0000A60
:104BB000DFF858048068066A30462169FDF76AFF0D
:104BC00007905146FEF77AF801D208460790207DFB
:104BD00000286CD0012800F0D0800328DFF82C04D6
:104BE0008068C069294640F0E580FDF7C7FF81462F
:104BF000E769D4F8208038464146FDF74BFF01466F
:104C00004846FEF749F824D8A66ADFF80004806811
:104C1000006A3146FDF73EFFFDF7C6FE00224FF069
:104C20008043FEF75DF8CDE9000138464146FEF7C6
:104C300071F9FDF7B9FE02460B46DDE90001FEF70A
:104C400023FBFEF71FF9054601202075C4F81C80E0
:104C50000CE13046FDF7A8FECDE904012846FDF73A
:104C6000A3FECDE902014846FDF79EFE0022DFF8D3
:104C7000CC33FEF735F8CDE900013846FDF794FE58
:104C800002460B46DDE90001FEF7C6F9DDE9022325
:104C9000FEF726F8DDE9042301F0E6F9FEF7F2F865
:104CA000064638464946FDF7F5FEE061DEE0D748A6
:104CB0008068C0692946FDF761FF8146E769304693
:104CC000FDF772FECDE904012846FDF76DFECDE942
:104CD00002013846FDF768FECDE900014846FDF7C0
:104CE00063FE0022D54BFDF7FBFFDDE9002301F059
:104CF000BBF9DDE90223FDF7F3FF02460B46DDE9D0
:104D00000401FEF789F9FEF7BDF80646A16AFDF732
:104D1000D5FF2CD20E46D4F82080BC488068006AAB
:104D2000FDF7B8FEFDF740FE00224FF08043FDF78F
:104D3000D7FFCDE9000138464146FEF7EBF8FDF715
:104D400033FE02460B46DDE90001FEF79DFAFEF751
:104D500099F805463046E16AFEF71EF902D10220B5
:104D6000207501E001202075C4F81C807EE03846E3
:104D70004946FEF7CFF8E06178E0D4F8208040465D
:104D80002946FDF7FBFE01463046FDF783FE02464D
:104D9000E76A3946FDF792FF0AD23046FDF77AFE00
:104DA000414600F079FC05463E46022020755DE054
:104DB00016465BE0FDF7E2FE8146E7693946FDF7FE
:104DC0007DFF32D23046FDF7EFFDCDE904012846E4
:104DD000FDF7EAFDCDE902014846FDF7E5FD0022B9
:104DE000964BFDF77DFFCDE900013846FDF7DCFD70
:104DF00002460B46DDE90001FEF70EF9DDE902236C
:104E0000FDF76EFFDDE9042301F02EF9FEF73AF815
:104E10000246A0691146FDF751FF06D216463846F4
:104E20004946FDF737FEE06120E0D4F824803046A3
:104E3000A169FDF72FFEFDF7B7FD00224FF080437B
:104E4000FDF74EFFCDE9000138464146FEF762F816
:104E5000FDF7AAFD02460B46DDE90001FEF714FA54
:104E6000FEF710F80546A669C4F81C80504629468E
:104E7000FEF750F882465946FDF720FF05D2584606
:104E80005146FDF707FE054612E007983146FDF74B
:104E900015FF13D25846FDF787FD694A694B01F0AB
:104EA000E3F8FDF7EFFF83465146FDF7F3FD0546B6
:104EB000A0693146FDF702FFFFF489AEE068FDF717
:104EC0005DFE0746FDF770FD01F014F8FDF7DAFF0F
:104ED0000546A068FDF768FD01F00CF8FDF7D2FF6C
:104EE00080462946FDF7D6FD00F0E2FF06990880CE
:104EF00080B2002803D14848007980076DD46068EB
:104F00005146FEF707F8814640463946FDF7C2FD97
:104F10000146484600F0C0FB8046FDF745FD4FF0D6
:104F20000042494BFDF7DCFE00F0E4FFFDF782FD97
:104F300042F22831884203D20021069A51711CE0C6
:104F400044F25061884203D20121069A51710AE06D
:104F500048F6A041884203D20221069A517102E02C
:104F60000321069A517106994979C8400699098822
:104F7000069A52799140069A1180B0F5803F02D28C
:104F80000699488003E04FF6FF70069948801F4855
:104F900080781E494870401C8870C0B2062801D134
:104FA00000208870084680680662A5602846394659
:104FB000FDF770FD4146FDF7E1FD60603046A169F7
:104FC000FDF7EAFF7FF476AC0021FDF765FE04D320
:104FD0001148007940077FF567AC0F48007940F031
:104FE00001000D49087109B0BDE8F08F0A4800784A
:104FF0007C21084202D00E48C069704700207047EB
:10500000A41C002000080140441E0020001C0020B9
:10501000A71C0020F61D0020E41D0020000C01400C
:10502000941E0020F41D0020FC1D0020A51C002063
:10503000141E00200000A03F3EC32E390000E03FB8
:10504000A5E2ECC367D8253FDF17F04110B51C4C33
:105050001021204600F0A3FE01221021204600F07E
:10506000ABFE0020BDE81040164900220A70164A27
:1050700092F84820120601D401220A70002803D0B9
:10508000087880F00100087070471048006800F050
:1050900010000C4909784840704780B5FFF7F5FFCC
:1050A00000280CD000200A4908700C2209490A483F
:1050B000FDF714FB0948017841F04001017001BD82
:1050C00000080140341F0020741C00200808014023
:1050D000F41D0020FC1D0020081E0020F51D0020EE
:1050E00010B5DFF8A4434FF48061204600F057FE6E
:1050F0004FF40051204600F052FE4FF4804120460C
:1051000000F04DFE01224FF48061204600F054FE75
:1051100001224FF40051204600F04EFE01224FF4D0
:105120008041204600F048FEDFF8600390F8480018
:1051300000071BD50C234FF480620A21002000F0E9
:1051400041FE0C234FF400520D21002000F03AFEE6
:105150000C234FF480420E21002000F033FE002289
:1051600011462820BDE8104000F047BEBDE81040C1
:1051700000221146282000F04EBEF8B50024C44895
:105180000168016800682546C04890F8480040065C
:1051900000D40E25002D0ED026462F4609E03046BD
:1051A000FCF74CF9074203D00120B0400443E4B2BD
:1051B000761C032EF3DB2046F2BD80B54FF4C840C9
:1051C00000F06DFEB348007801280AD0B24800789C
:1051D000002806D1FEF7B9FC0120BDE80240FDF72A
:1051E00041BA01BD2DE9F14F8AB0AA4840780028A4
:1051F00040F0278100220C2107A8FBF7B5FE06200E
:105200008DF824004FF0030B4FF00008444627E0D0
:105210002046FCF7FFF803A908559DF82800012156
:10522000A14008421BD0994D05EB8400456A4046D9
:10523000FDF7BAFB02460B4616461F462846FDF709
:10524000B3FB0022954BFDF74BFD32463B46FEF784
:1052500047F904D392482946FDF790FC8046641C28
:10526000032CD5DB0126894D05F14C000290D0F8C6
:1052700004A08C4904A8FDF7C0F90027B9463C46B4
:10528000884A0BE0002E1DD0404680F0004004A963
:1052900041F8240003A8005D0743641C032C15DAC1
:1052A000012000FA04F19DF828000842F5D009F128
:1052B0000109002042F8240095F849000842E1D194
:1052C000002EE1D004A840F82480E3E75046FDF723
:1052D0006BFBCDE900015FFA89F9484601F0E6FA77
:1052E000FDF75AFFDDE90023FDF7FAFCFDF7CAFDE3
:1052F000824668488771CDF81CA007A904A800F071
:10530000BFFB042063490871FFF7C3FAFFF772F887
:10531000002E13D0FFF731FF00240BE003A9095D35
:105320003A460A4205D002462241D20701D58F43B0
:10533000FFB2641C032CF1DB56488771FFF7A9FA12
:1053400059480178342211422BD004782046C006F7
:1053500002D50620FDF786F92046800602D50720F3
:10536000FDF780F9002E08D1FFF707FF9DF8281000
:10537000084202D00820FDF775F9002E04D060071E
:1053800002D50920FDF76EF943480078002804D0C3
:10539000FEF7DBFBFEF76BFD53E00420FDF75CF945
:1053A00002E017F01C00B3D1FFF7E4F9029800897E
:1053B000FDF75FFA96F001060298C76808D03B48EF
:1053C0003946FDF7DBFB80460298D0F800A002E0EA
:1053D000B846D0F804A05846A0F1010BC0B200288E
:1053E0007FF447AF00240DE038463146FDF7C6FB99
:1053F00080F00040FDF7D8FA01F066FA294941F83B
:105400002400641C032C19DA0120A0409DF8281008
:105410000142F6D055F8246095F849100142E3D0D6
:1054200005EB8400406A3946FDF774FD3146FDF70F
:10543000A5FBFDF7B9FA01F047FADFE700201549AF
:1054400008710BB0BDE8F08F10B5FDF7E7F8002844
:1054500019D0104C0120E070207808280AD10820CB
:10546000FDF7F5F8FEF703FD607800280BD12078F2
:105470000028F7D1FEF769FB0220FDF7F3F8BDE83D
:105480001040FEF7F4BC10BD00080140741C002061
:1054900008080140E41D0020F61D00200000F8BFB0
:1054A0000000C0BFFC1D0020F51D00200000A04032
:1054B00080B501F0A5FAC0B2802801DB002002BD52
:1054C000C0F18000C0B202BD01F0ACBA01F085BAF3
:1054D00001F0A7BA10B5044603E014F8010BFFF77A
:1054E000F3FF20780028F8D110BD10B5044601E084
:1054F000FFF7EAFF14F8010B0100F9D110BD38B530
:1055000000242546642809DB01460A2091FBF0F0BF
:1055100000EB8002A1EB420101F13004C0B20A2885
:1055200009DB01460A2091FBF0F000EB8002A1EBC1
:10553000420101F130053030C0B2FFF7C5FF284607
:10554000C0B2002803D02846C0B2FFF7BDFF2046F6
:10555000C0B2002805D02046C0B2BDE83240FFF7F7
:10556000B3BF31BD7FB506460C460021FDF7A6FB53
:1055700004D22D20FFF7A8FF86F00046254606E05E
:1055800040483146FDF7FAFA0646AD1EEDB2022D4F
:10559000F6DA002D04D03C483146FDF7EFFA064616
:1055A00000254FF07C503146FDF7B4FC00F080FC44
:1055B00000280DE00A21B0FBF1F10A4602EB82035C
:1055C000A0EB430030306A46EDB250556D1C080028
:1055D000F0D128462146C0B2884205D23020694623
:1055E000EDB248556D1CF4E715D130206946EDB297
:1055F00048556D1C0FE028462146C0B2884202D1B2
:105600002E20FFF761FF6846EDB2284410F8010C28
:10561000FFF75AFF6D1E2846C0B20028EBD17FBDB0
:1056200010B51A4991F84810C9070DD504210C4648
:10563000FDF7BAF9164A174BFDF752FBFDF722FCAE
:105640002146BDE810408DE70321BDE8104089E701
:1056500010B50E4991F84810C9070DD501210C4627
:10566000FDF7A2F90A4A0B4BFDF73AFBFDF70AFCDE
:105670002146BDE8104075E70021BDE8104071E704
:10568000000000000000C84200002041741C0020FF
:105690006568E1575128A43F10B5FF2313EAD054A1
:1056A0001DBF13EAD1529C429A4239E0A41ADA078C
:1056B00080EA0103134042EA012142EA0020421A33
:1056C0003CBF641E01EB4202090AB2FBF1FE01FB82
:1056D0001E221202B2FBF1F001FB10226EF30F202A
:1056E0001202B2FBF1FE4EEA00207F3406DDFE2CF2
:1056F00024DA53EA500050EBC45010BDD4F1020438
:1057000001FB1E2240F08071192C1DDC21FA04F0EF
:10571000C4F12004A140114371F10042584110BD71
:105720009C421ABF03EAD1529A420FE080EA010E6E
:105730000EF00043400004D0490016D143F0FF4072
:1057400010BD490008BFD343180010BD9C4205D1CD
:10575000D21AF7D001F00041484010BD4A0212BFF2
:105760000846484000F0004010BD4AB90902B1FAAD
:1057700081F2914044B1A418C00140F000409EE77E
:10578000C90141F0004152420002B0FA80F4A04049
:10579000141B94E7401CC0B2102800D100207047B1
:1057A000010000D11020401EC0B270472DE9F84F13
:1057B000DFF858456078FFF7F3FF804694F80390D0
:1057C0004946884200F087803025DFF8446505FBB4
:1057D00008F03718F9694FF08040FDF7CFF9396AC2
:1057E000FDF7CCF90146B869FDF768FA00D2014629
:1057F00079614046FFF7D4FF804648450ED12078B6
:10580000804501D1FFF72BF8E07805FB00F106EBAE
:105810000109FFF7BFFF804659E078614046E17813
:105820008842F1D0B94605FB08F037184046FFF72B
:10583000B7FF80462178884201D1FFF710F8D7F8EA
:1058400018A078695146FDF7A7FBE7D0F8694FF03B
:105850008041FDF793F9396AFDF790F9D9F81410F2
:10586000FDF758FB5146FDF729FAD6D3C7F814A027
:10587000D4E74F4605FB08F006EB0009D9F814A061
:10588000D7F814B058465146FDF718FA12D2F86905
:105890004FF08041FDF772F9396AFDF76FF959460B
:1058A000FDF738FB5146FDF709FA03D2C9F8140099
:1058B00084F80380D9F81400D9F81810FDF76CFBB0
:1058C00001D184F803804046FFF764FF80464046DC
:1058D00061788842CDD1BDE8F18F80B500221C21CE
:1058E000DFF8300401F022F9BDE80140DFF81C04C4
:1058F000002101704170012181700021C170704749
:1059000038B5DFF80844257860782946884207D002
:105910002846FFF73FFFE1788D4200D1E07020700C
:1059200031BDDFF8EC03DFF8E413497801EB410205
:1059300000EB02107047DFF8D403017840780A4684
:10594000904201D100207047DFF8C40301EB41020F
:1059500000EB0210704710B5DFF8B0432078FFF776
:1059600019FF6178884201D1002010BDDFF8A01333
:1059700000EB400201EB0210406910BDDFF88C0320
:1059800001788078814201D1012070470020704762
:1059900070B50646F26A707CC10717D51046FDF750
:1059A00003F804460D46DFF87003007A00F07EFF2E
:1059B000DFF86823DFF86833FDF792F922462B46BB
:1059C000FDF78EF9FDF75EFA02461BE0400713D49F
:1059D0001046FCF7E9FF04460D46CF48C07900F0B9
:1059E00065FFCE4ACE4BFDF77BF922462B46FDF7ED
:1059F00077F9FDF747FA0246B06A1146FDF75EF9FE
:105A000000D202461046C749FDF746F901D94FF0CA
:105A10007E5070BD10B504461046FDF74FF904D214
:105A20000146FDF7ABF8A06103E00846FDF7A6F8D4
:105A3000A061606AA169FDF741F900D2A06110BDC3
:105A40002DE9F041B14C2678B74D12E0B04806EB95
:105A5000460110EB01173846FFF79AFF80462A46A9
:105A600041463846FFF7D6FF45463046FFF792FEDF
:105A70000646304661788842E8D1E561BDE8F081AC
:105A80002DE9F04F8DB007468846A04CA0486178BC
:105A900001EB410210EB0215002230212846FBF7F2
:105AA00063FA98F808006874800705D50C229F49AE
:105AB00006A8FCF713FE04E00C22211D06A8FCF743
:105AC0000DFE4FF000099A4E17E00846E860504678
:105AD000FCF7C6FF56F82910FFF7DEFD694641F8CE
:105AE00029000021FDF7EAF805D24846FBF79CFCA7
:105AF000297C0843287409F10109B9F1030F1BDA65
:105B000057F8290056F82910FDF738F8FCF74CFF34
:105B100000F0DAFE09A941F8290006A951F8291078
:105B2000A0EB010A504601F034F845F8290001467F
:105B3000E8688142C9D2C9E7E868002801D100209D
:105B4000BAE06846FCF7B6FE2862694606F118001E
:105B5000FCF7E2FEE861694606F10C00FCF7DCFEAA
:105B6000A862697CC90701D5E86209E0D8F800108D
:105B7000E962687C000703D5286AFCF7FFFFE8624A
:105B800060782178884202D0687C800703D50020A5
:105B90006861686270E04FF00008C14617E004EBEE
:105BA00089000769684650F829A038465146FCF735
:105BB000E5FF01464046FCF76DFF804650463946FA
:105BC000FCF768FF03A941F8290009F10109B9F1BF
:105BD000030FE4DB40465749FDF75EF802D800208A
:105BE000686249E05449FDF769F802D24E4868629C
:105BF00042E003A8FCF75EFE03A906F11800FCF7DB
:105C00008BFE07464FF0000ADFF830B14046FCF744
:105C1000CBFE02460B4650465946FDF7FDF952466B
:105C2000474BFDF75DF8FDF7B7FAFDF72BF9804616
:105C3000B06B3946FCF7A2FF4146FCF79FFFFCF72B
:105C4000B3FE06460F464046FCF7AEFE02460B4644
:105C500050465946FDF7E0F902460B4630463946B4
:105C6000FDF712FB52461346FDF73AFC01D21046EF
:105C700001E0FDF707F96862687C80071BD42846BD
:105C8000FFF786FE0646E26931462846FFF7C2FE68
:105C9000E6610C22694604F11000FCF71FFD0C229E
:105CA00009A9201DFCF71AFDA0786070FFF772FDAE
:105CB000A070FFF77BFD01200DB0BDE8F08F002044
:105CC00007E01A4951F82010104A02EB8002516097
:105CD000401C0328F5DB70470C48417800780A46E1
:105CE00003469A4204D3C1F10F014018C0B2704775
:105CF000401A401EC0B2704780B5FEF7B0FD0348A1
:105D00000178C170BDE8014050E50000B81E0020D8
:105D100000190020BC1E0020E41D00207B14AE47AB
:105D2000E17A843F0100803F9976967EFC1D002039
:105D3000741C0020F0FF7F3FEFFF7FBF0000F03FAB
:105D40000000E03F80B50121042000F02AFF01217E
:105D5000082000F026FF0121102000F022FF012181
:105D6000084600F01EFF0121044800F086FF0121D3
:105D70000348BDE8044000F080BF0000000430008C
:105D80000002300080B5ADF8001010218DF803102E
:105D900001218DF80210694600F020FF01BD80B599
:105DA000ADF8001048218DF8031001218DF8021084
:105DB000694600F013FF01BD002A01D1416170471F
:105DC00001617047F0B583B004460D4616461F4684
:105DD0000121084600F0E5FE2946204600F081FF3B
:105DE000009600208DF804008DF8057001208DF8D4
:105DF0000600684600F01EF8F7BD80B58DF800007B
:105E00008DF801108DF8022001208DF803006846FE
:105E100000F083FF01BD80B58DF800008DF8011002
:105E20008DF8022000208DF80300684600F075FF11
:105E300001BD000030B40168CB431B498279002AC0
:105E400026D00A4614682340136053680468A343AD
:105E500053600379CC18236805682B43236093684B
:105E60000468A3439360D3680468A343D360437971
:105E70000568102B07D1916829439160D1680068AB
:105E80000843D06009E0CC1820682843206004E073
:105E900000790C1820681840206030BC7047034916
:105EA0000860704700000000000401401404014035
:105EB0004100090E7F3915D4D1F11F0114D44000DF
:105EC00007D2C00140F00040C84048BF6FF000401A
:105ED0007047C00140F00040C8404CBF4FF0004048
:105EE000404270470020704700424FF0004058BFCA
:105EF000C043704740F2FF7C1CEA115240F2FE336F
:105F0000D21ACCBFD2F1350316E0B2F1150309DA8B
:105F10006FEA4C53D340094201D4401E594100203E
:105F2000994370476FF00002DA40094202D48018AA
:105F300051F1000190437047352A09DA50EA4103D4
:105F40001CBF40F2FF31090528BF4FF0004100207F
:105F50007047000080B56FF0040000F00CFF1F4890
:105F60001F4909681F4AB1FBF2F1018001884FF413
:105F70007A725143418001BD002817D01A49401E52
:105F8000164A12885043401C486000208860086808
:105F900040F001000860086800F001100128FAD004
:105FA00008684008400008600020886070470E497B
:105FB0000A4A52885043486000208860086840F0D0
:105FC00001000860086800F001100128FAD0086894
:105FD0004008400008600020886070471E1F0020B5
:105FE0001000002000127A0010E000E04268C2F3C6
:105FF0000A5240F2FF739A4207D14168090303BF76
:106000000068002801200220704743685B0004BF3D
:106010000368002B25D040F233439A1A521A012A02
:106020001FDB352A06DB416801F000414160002199
:10603000016013E0012102F01F039940491E9206FE
:1060400007D5426811404A4042600268114300226D
:1060500002E0026811404A40026011B14FF0FF3087
:106060007047002070470000F0B44FF0004591EAFF
:10607000030C44BF6B40FCF7D9BF00BF841A71EB1F
:10608000030603D2001BB141121973414FF4001CE7
:106090001CEB410F34BF7CEB430443E00C0DA4EB3D
:1060A0001356352E50DC45EAC323DB0A45EAC121ED
:1060B000C912B6F120050DDD63FA05F6EB4086EA5C
:1060C0000305124218BF45F00105C01851F1000147
:1060D0000CD213E062FA06F5F2405540F3415A4003
:1060E000B340F3405A408018594107D349085FEA4A
:1060F00030005FEA350528BF45F0010501F5801144
:10610000420875F1004250F1000041EB0451F0BC2F
:106110004FF4001C1CEB410F38BF70470020090DE5
:10612000090570471CEB410F10D252EA43060BD011
:10613000BCEB410F05D80C0DAB43661E342EB5DD0C
:1061400002E0AB4380185941F0BC7047F0BC704787
:106150001FB500F02BFE212101601FBD38B50FB423
:10616000DDE9020100F028FE0546DDE9000100F04E
:1061700023FE0246012DB8BF012A2CDA019800281F
:1061800007D5DDE9000181F00041CDE900010824D7
:1061900000E000240398002807D5DDE9020181F022
:1061A0000041CDE9020184F00604DDE90201DDE9E8
:1061B0000023FDF795F902D2FDF766F827E0002DE0
:1061C00006D5DDE90001DDE90223FDF75DF820E0F9
:1061D000002000211DE0022A08BFDDE900011ED0D9
:1061E000022D08BFDDE9020119D09542019B07BFCE
:1061F00000200C4900200021002B039B4CBF0824E9
:106200000024002B48BF84F00604012A01D184F049
:106210000204224605B0BDE8304000F0E9BD05B0FB
:1062200030BD00BF0000F03F40F2FF7C1CEA11527D
:1062300040F2FE33D21ACCBFD2F1350316E0B2F1F0
:10624000150309DA6FEA4C53D340094201D5401EC9
:1062500059410020994370476FF00002DA4009422B
:1062600002D5801851F1000190437047352A09DAB0
:1062700050EA41031CBF4FEA0C5101F1804138BF85
:10628000002100207047012200F0A2BE002200F091
:106290009FBE000093489449016094490160704793
:1062A0009348016841F0800101607047914800689F
:1062B000C10701D501207047410701D50220704771
:1062C000C00601D5032070470020704738B504464A
:1062D000FFF7ECFF0546012D07D10120FFF74CFE2B
:1062E000641E204680B20028F2D1A4B2002C00D156
:1062F000FF25284632BD70B5054645F6FF76304687
:10630000FFF7E4FF010013D1794C206840F0020050
:1063100020606560206840F0400020603046FFF754
:10632000D5FF012804D021686FF0020211402160DE
:1063300070BD70B504460D46FF20FFF7C7FF010092
:106340000ED16B4E306840F0010030602580FF2098
:10635000FFF7BCFF012803D03168490849003160CC
:1063600070BDF8B504460D461646002707E02046E6
:106370000088C046BFB225F81700A41C7F1C384611
:10638000314680B28842F2D3F1BDF8B504460D46DD
:106390001646002707E0BFB235F817102046FFF772
:1063A000C8FFA41C7F1C3846314680B28842F2D315
:1063B000F1BD2DE9F84F04460D46164604F1784824
:1063C000B8F5803F01D3BDE8F18FFFF763FF4FEAD7
:1063D0009827C8F34808C8F500791FFA89F9B1452C
:1063E00003DBB14601E04FF40079B80200F1006A26
:1063F000DFF804B14FF4007259465046FFF7B1FF81
:1064000000204FF6FF7201E0401C80B2484505DADB
:1064100000EB08013BF811109142F5D0484515DA20
:106420005046FFF768FF002007E035F8101008EB32
:1064300000022BF81210401C80B24845F5DB4FF4E7
:10644000007259465046FFF7A0FF04E04A4629462D
:106450002046FFF79AFF4E4502D1BDE8F14F1FE7F6
:106460007F1C4FF0000805EB49054C44A6EB0906DC
:10647000B6B2B6F5007FB6DCB146B6E738B504462D
:106480000020B4F5806F0CD21C4D4FF400722946E9
:106490001B48FFF766FF600835F81000E10700D5DC
:1064A000000AC0B232BD18B4B0F5806F17D24208EE
:1064B000124B33F81240C00705D404F47F40084360
:1064C00023F8120005E004F0FF0040EA012023F861
:1064D00012004FF400721946094818BC69E711BC54
:1064E000704700000420024023016745AB89EFCDCF
:1064F000102002400C200240001500200011002056
:1065000000FC00081FB50121022000F055FB494C9A
:1065100001212046C94301820020ADF80A00ADF8F0
:10652000060001A9204600F065FF01221146204621
:1065300000F0B4FF1D208DF8000003208DF801004D
:106540008DF8020001208DF80300684600F0E5FB9D
:106550000121084600F02FF80121042000F02CFB57
:10656000354C01212046C94301820020ADF80A00C4
:10657000ADF8060001A9204600F03CFF01221146BB
:10658000204600F08BFF1E208DF8000003208DF8C0
:10659000010002208DF8020001208DF803006846FA
:1065A00000F0BBFB1FBD0121224800F06BBF0021A2
:1065B000204800F067BF38B50C461E4D21000AD0B8
:1065C0000122014628460185828221462846BDE8EF
:1065D000344000F070BF01221146284600F068FFE9
:1065E00001212846BDE8344000F065BF0121124872
:1065F00000F048BF0021104800F044BF38B50C46F9
:106600000D4D21000AD001220146284601858282D3
:1066100021462846BDE8344000F04DBF0122114616
:10662000284600F045FF01212846BDE8344000F02F
:1066300042BF0000000400400008004010B5944C28
:106640004FF470612046FFF79DFB00224FF470610C
:106650002046FFF7B1FB4FF470412046FFF792FB55
:1066600000224FF470412046BDE81040FFF7A4BB64
:1066700038B50546874C2078002803D000202070CC
:10668000FFF7DCFF012D08DB6078401C6070C0B2B2
:1066900008280CDB0838607009E0002D07D5607809
:1066A000002801D1082060706078401E6070784D2D
:1066B00000224FF470612846FFF77EFB60780728C0
:1066C0005DD8DFE800F0040C1A223038464E012273
:1066D0004FF480712846BDE83840FFF76DBB0122BA
:1066E0004FF480712846FFF767FB01224FF40071D9
:1066F0002846BDE83840FFF75FBB01224FF4007128
:106700002846BDE83840FFF757BB01224FF400711F
:106710002846FFF751FB01224FF480612846BDE86F
:106720003840FFF749BB01224FF480612846BDE89D
:106730003840FFF741BB01224FF480612846FFF744
:106740003BFB01224FF400612846BDE83840FFF7CB
:1067500033BB01224FF400612846BDE83840FFF703
:106760002BBB01224FF400612846FFF725FB0122D5
:106770004FF480712846BDE83840FFF71DBB31BD9E
:1067800038B50546434C2078002803D000202070FF
:10679000FFF754FF012D08DBA078401CA070C0B2A9
:1067A00008280CDB0838A07009E0002D07D5A07878
:1067B000002801D10820A070A078401EA070344DA0
:1067C00000224FF470412846FFF7F6FAA078072818
:1067D0005DD8DFE800F0040C1A223038464E012262
:1067E0004FF480512846BDE83840FFF7E5BA012252
:1067F0004FF480512846FFF7DFFA01224FF4005191
:106800002846BDE83840FFF7D7BA01224FF40051BF
:106810002846BDE83840FFF7CFBA01224FF40051B7
:106820002846FFF7C9FA01224FF480412846BDE807
:106830003840FFF7C1BA01224FF480412846BDE835
:106840003840FFF7B9BA01224FF480412846FFF7DC
:10685000B3FA01224FF400412846BDE83840FFF763
:10686000ABBA01224FF400412846BDE83840FFF79B
:10687000A3BA01224FF400412846FFF79DFA0122F6
:106880004FF480512846BDE83840FFF795BA31BD36
:10689000000C0140FC000020010040F10980F4469A
:1068A000404200F005F851F000416047010000BF90
:1068B00009D0B0FA80F18840C91CC1F5846109058E
:1068C00001EBD0214005704738B5C1F30A5440F2BE
:1068D000FF75AC4216D0002C04BFC1F3130350EA7D
:1068E000030213D0FCF7B6F90022094B00F006FEB4
:1068F00008D8084A084BFCF7F3FD3CBFBDE834401C
:10690000FCF782B800F052FA21210160002032BD6C
:106910000000E0C10100C0FFFFFFDF4180B54FF480
:106920008020FFF7BCFA6C484FF4802101600821F9
:10693000417101218171BDE80240FFF77BBA80B54A
:10694000002000F02BF901214FF40000BDE80440C5
:1069500000F032B961486249897A002902D00521E4
:10696000016001E00121016000F0E0BD80B54FF45D
:10697000A06000F0CDF914208DF8000002208DF801
:10698000010000208DF8020001208DF80300684608
:1069900000F0C3F92A208DF8000000208DF80100D6
:1069A000684600F0BAF901BD70B400224D4E0DE00A
:1069B0004D4B1C88D2B2855C3555641C1C80A4B23A
:1069C000B4F5806F01DB00241C80521C13460C467A
:1069D000DBB2A342ECD370BC704743484188B1F5A9
:1069E000806F01DB00214180418802880B469A427A
:1069F00001D1FF2070474A1C42803A48405C7047F2
:106A000039484188008802460B469A4201D3401A11
:106A100002E000F58060401A80B2802800DB7F2011
:106A20007047704731494A88314B9854501C80B2A6
:106A3000B0F5806F02DB002048807047501C488012
:106A400070472A480178002900D0704710B5818826
:106A5000B1F5806F01D10021818041888288134681
:106A60000C46A34223D00B461446A34202D2C2F5E1
:106A7000806400E08C1A1346A4B2412C04DB40244D
:106A800002F14001818001E0A118818001210170A3
:106A90002246C0211648184400F0C6FD21460120B8
:106AA00000F0B4FE0120BDE8104000F025BE10BD8E
:106AB00038B5104844680168806840180BD00E4D06
:106AC0000822A91C00F01AF8042205F11201204640
:106AD000BDE8384012E031BD041F0020301F002007
:106AE0006C1E0020000D00201A1F0020141F002023
:106AF00000090020E8F7FF1F1400002030B4002335
:106B000009E0373401F813400001002401EB43058C
:106B10006C705B1CDBB2934206DA040F0A2CF0D2D5
:106B2000303401F81340EFE730BC704762F30F22B6
:106B300062F31F42401810F0030308D0C91A1FD394
:106B4000DB0748BF00F8012D28BF20F8022D1300F5
:106B500030B414461546103928BF20E93C00FAD855
:106B6000490728BF20E90C0048BF40F8042D8900E0
:106B700028BF20F8022D48BF00F8012D30BC704717
:106B8000C91818BF00F8012DCB0728BF00F8012D48
:106B90007047002848BF4042704700000C49086019
:106BA00070470C4A0029116802D0084310607047F2
:106BB00021EA000010607047074A0029116802D0DE
:106BC00008431060704721EA000010607047000021
:106BD000D8004242181002401C100240F0B40023BA
:106BE000CC7804F00F02E40601D58C7822430C889F
:106BF000E4B2002C1CD0046803E0482D00D10661EB
:106C00005B1C082B13D2012505FA03F635460F88C5
:106C10002F40AF42F4D19D000F27AF40BC4302FA92
:106C200005F52C43CD78282DE7D14661E8E70460CF
:106C30000B88FF2B1FDD4468002319E0012503F1B9
:106C4000080605FA06F635460F882F40AF420ED1EA
:106C50009D000F27AF40BC4302FA05F52C43CD78C9
:106C6000282D00D14661CD78482D00D106615B1CEE
:106C7000082BE3D34460F0BC704770B4224A00286C
:106C800001D5946900E01468C0F3034583B200F4B1
:106C90004016B6F5401F06D124F07064156825F043
:106CA000706515600FE0C60206D5032606FA05F5E5
:106CB000AC4344F0706406E0450D2D0103FA05F580
:106CC000AC4344F07064002904D0410D090103FA7B
:106CD00001F10C43002801D5946100E0146070BC00
:106CE000704730B48A0002F00C026FF003031940C1
:106CF000064B5C580F259540AC435C505C58904067
:106D00002043585030BC7047040001400800014047
:106D10002049084320490860704770B403781A4638
:106D20000121C478002C1CD01B4B1B6803F4E063CA
:106D3000C3F5E0631B0A4478C3F10405AC408578D1
:106D40000F26DE4006EA050323431B01134CA35420
:106D5000007800F01F029140114A401142F82010C3
:106D600007E003F01F0001FA00F00E49521141F84C
:106D7000220070BC70470C490428086803D140F019
:106D80000400086070476FF004021040086070470C
:106D9000000000000000FA050CED00E000E400E057
:106DA00000E100E080E100E010E000E0014800F0D8
:106DB00073BD0000F8000020C1F30A5240F2FF73D7
:106DC0009A420AD012B14FF0FF307047C1F313015D
:106DD000084309D06FF001007047C1F31301084365
:106DE00001D0022070470120704700000000000021
:106DF0002DE9F04D1746504A504B00F07FFB0446FA
:106E00000D461CD84E4EDFF83C8132464346FBF718
:106E100067FF00224C4BFFF727F982468B4632462C
:106E2000434620462946FFF71FF902460B465046C7
:106E30005946FCF729FA04460D4647F0010720465B
:106E400029460022414BFCF74BFB05D301224FF0B2
:106E5000795300F053FB53D822462B46FBF740FFF3
:106E6000064688463246434620462946FBF738FF09
:106E700082468B463648374932464346FBF730FF59
:106E8000354A364BFFF7F0F832464346FBF728FF0A
:106E9000334A344BFFF7E8F852465B46FBF720FFD6
:106EA00022462B46FFF7E0F804460D462E482F49B0
:106EB00032464346FBF714FF2D4A2E4BFFF7D4F81A
:106EC00032464346FBF70CFF2B4A2C4BFFF7CCF81E
:106ED00032464346FBF704FF294A2A4BFFF7C4F822
:106EE00032464346FBF7FCFE0022274BFFF7BCF877
:106EF00002460B4620462946FCF7C6F904460D46D5
:106F0000B80748BF85F0004517F007000BD00FF217
:106F1000800101EBC0022B46D2E900012246FFF7B7
:106F2000A3F804460D46380747BF85F000412046C8
:106F300020462946BDE8F08D57CD9E5E1426D13FF0
:106F4000AA4C58E87AB6FB3F0000F0BF000040BEF4
:106F5000845D57134B57B03FB2934C19ED5EE43F3D
:106F6000BEDE02B90240F83FDE39028FC7C0743F6F
:106F70008AAB1283000CC83F24D7E508B6D8F03F8F
:106F80000F34580E5895FD3F0000F03F0000000000
:106F9000000000000000000066732D3852C1E03F81
:106FA000182D4454FB21F93F66732D3852C1F03F30
:106FB000182D4454FB21F93F66732D3852C100400F
:106FC000182D4454FB2109403FD038C6A6F1044097
:106FD0002DE9F04C04460D46164683B0DFF87403E5
:106FE000DFF8741322462B46FBF77AFE8B4621F01E
:106FF0000041DFF86823DFF86833FCF771FA0746D1
:1070000080F0F18059460022002300F077FA104604
:1070100094BFDFF85013DFF850133A465B46FFF792
:1070200023F8FBF7F1FC070051D0FFF735FC0022F5
:10703000CE4BFBF755FE82468B464FF0A040CC4925
:1070400052465B46FBF74CFE02460B46204629465D
:10705000FBF7E2FF04460D464FF0C040C5495246DB
:107060005B46FBF73DFE02460B4620462946FBF7F2
:10707000D3FF04460D464FF00050BF4952465B46D1
:10708000FBF72EFE02460B4620462946FBF7C4FFBF
:1070900004460D460020B94952465B46FBF720FEE8
:1070A00002460B4620462946FBF7B6FF04460D462E
:1070B0004FF00050B24952465B46FBF711FE0246C4
:1070C0000B4620462946FBF7A7FF04460D46BE198E
:1070D000204629464FF0FF32AA4B00F00FFA0BD89A
:1070E00000224FF07953FCF7FBF905D2F00740F18D
:1070F0002A810024A44D26E122462B46FBF7F0FD11
:107100000746F0078B4631D5A048A1493A465B4671
:10711000FBF7E6FD9F4AA04BFEF7A6FF3A465B460B
:10712000FBF7DEFD9D4A9E4BFEF79EFF3A465B460F
:10713000FBF7D6FD9B4A9C4BFEF796FF3A465B4613
:10714000FBF7CEFD994A9A4BFEF78EFF3A465B4617
:10715000FBF7C6FD6FF05102964BFEF785FF3A46EE
:107160005B46FBF7BDFD0022874B37E03A465B46A6
:1071700020462946FBF7B4FDCDE900013A468E488A
:107180008E495B46FBF7ACFD8D4A8E4BFEF76CFFDC
:107190003A465B46FBF7A4FD8B4A8C4BFEF764FF37
:1071A0003A465B46FBF79CFD894A8A4BFEF75CFF3B
:1071B0003A465B46FBF794FD874A884BFEF754FF3F
:1071C0003A465B46FBF78CFD854A864BFEF74CFF43
:1071D000DDE90023FBF784FD22462B46FEF744FF42
:1071E00004460D46AFE0C5F30A5240F2FF739A42DF
:1071F0000AD0BAB9C5F31300204313D1002E00F012
:10720000F3800024604DEFE0C5F31300204340F00D
:10721000EB80FFF7CBFD212101604FF0FF306FF0D5
:107220000041E3E0CDE90045684600F037FBDDE9C9
:1072300000458619204629464FF0FF32514B00F099
:107240005DF90AD800224FF07953FCF749F904D2CE
:10725000F00778D500244C4D75E022462B46FBF70D
:107260003FFD0746F0078B4631D5484848493A4626
:107270005B46FBF735FD474A474BFEF7F5FE3A46BE
:107280005B46FBF72DFD454A454BFEF7EDFE3A46C2
:107290005B46FBF725FD434A434BFEF7E5FE3A46C6
:1072A0005B46FBF71DFD414A414BFEF7DDFE3A46CA
:1072B0005B46FBF715FD6FF051023E4BFEF7D4FE27
:1072C0003A465B46FBF70CFD00222F4B37E03A466F
:1072D0005B4620462946FBF703FDCDE900013A460F
:1072E000354836495B46FBF7FBFC354A354BFEF724
:1072F000BBFE3A465B46FBF7F3FC334A334BFEF7E3
:10730000B3FE3A465B46FBF7EBFC314A314BFEF7E6
:10731000ABFE3A465B46FBF7E3FC2F4A2F4BFEF7EA
:10732000A3FE3A465B46FBF7DBFC2D4A2D4BFEF7EE
:107330009BFEDDE90023FBF7D3FC22462B46FEF73C
:1073400093FE04460D46B0074ED585F00041204619
:107350004CE000BF83C8C96D305FE43F0000A0FF70
:10736000FFFFDF410000E03F0000E0BF0000303ED3
:10737000FB21B941B410114026A6513E5C14D33C08
:107380009A833B3BFFFF3FBE0000F03F09260A10F7
:1073900039BA213E3BA861C6F97D92BE63AC3090FC
:1073A0009F01FA3EF6FB51166CC156BFB10255550E
:1073B0005555A53FFFFFDFBFB08F2FC310D8E53D68
:1073C0008F0C73A1E1E55ABE4DADE44FE31DC73EFE
:1073D0003EE3B519A0012ABFFAF010111111813F47
:1073E000425555555555C5BF2046294603B0BDE801
:1073F000F08C000010B40388DFF8D820904212D03F
:10740000DFF8E840A0420ED0B0F1804F0BD0DFF89B
:10741000C840A04207D0DFF8C440A04203D0DFF844
:10742000C040A04204D14FF68F7423404C882343C0
:10743000DFF8B040A04208D0DFF8AC40A04204D052
:107440004FF6FF442340CC88234303808B888385F9
:107450000B88038590420FD0DFF8902090420BD02C
:10746000DFF88C20904207D0DFF88820904203D0CC
:10747000DFF88420904201D1097A018601218182BE
:1074800010BC70470029018803D041F00101018040
:1074900070474FF6FE72114001807047002A8289C2
:1074A00002D011438181704722EA01018181704736
:1074B000018582827047818570470022038A0B40D4
:1074C00080890840002B02D0002800D001221046FD
:1074D00070470000002C01400004004000080040FC
:1074E000000C004000100040001400400034014037
:1074F0000040014000440140004801404FF4001C9E
:107500001CEB410F94BF1CEB430F09E041EA030C55
:1075100050EA4C0C52EA0C0C03D28B4208BF824258
:10752000704714BF994290427047000080B53948B7
:10753000016841F0010101604168374A1140416032
:107540000168364A11400160016821F48021016020
:10755000416821F4FE0141604FF41F01816000F099
:1075600005F84FF000602E49086001BD00BF82B0F1
:107570000020019000902748016841F480310160AB
:10758000016801F4003100910199491C01910099B1
:10759000002903D10199B1F5A06FF1D10168490C1F
:1075A00001F0010100910099012930D11D490A68BB
:1075B00042F010020A600A68920892000A600A68A3
:1075C00042F002020A6041684160416841604168DE
:1075D00041F480614160416821F47C11416041685F
:1075E00041F4E8114160016841F080710160016877
:1075F0008901FCD54168890889004160416841F0F2
:1076000002014160416801F00C010829FAD102B081
:1076100070470000001002400000FFF8FFFFF6FE78
:1076200008ED00E00020024010B4490001F1804163
:1076300001F5C041521C521007E00378447843EA38
:10764000042321F8043B801C521EF6D110BC704765
:10765000490001F1804101F5C041521C521004E083
:1076600051F8043B20F8023B521EF9D1704700004C
:107670004FF6F8710840DFF800120860704710B448
:10768000DFF8F82152F8203048F68F1423401943D0
:1076900042F8201010BC704710B4DFF8E02152F817
:1076A000203048F6BF742340CC0601D583F0100388
:1076B000890601D583F0200343F4004141F08001A5
:1076C00042F8201010BC704710B4DFF8B02152F817
:1076D00020304BF68F742340CC0401D583F48053C3
:1076E000890401D583F4005343F4004141F0800143
:1076F00042F8201010BC7047DFF8801151F82020AC
:1077000048F6BF731A4082F0300242F4004242F061
:10771000800241F820207047DFF8601151F82020E6
:107720004BF68F731A4082F4405242F4004242F00A
:10773000800241F820207047DFF8401151F82020E6
:1077400048F68F631A4042F4004242F0800241F84A
:1077500020207047DFF8241151F8202052040AD568
:1077600051F8202048F68F731A4042F4404242F00C
:10777000800241F820207047DFF8001151F82020E6
:1077800052060AD551F8202048F68F731A4042F469
:10779000004242F0C00241F820207047DFF8D820B4
:1077A000126892B202EBC000400000F1804000F588
:1077B000C0404908490001607047DFF8BC201268EA
:1077C00092B202EBC000DFF8B82002EB400049089B
:1077D000490001607047DFF8A010096889B201EB29
:1077E000C000400000F1804000F5C040006880B259
:1077F0007047DFF88410096889B201EBC000DFF838
:10780000801001EB4000006880B27047DFF868200C
:10781000126892B202EBC000DFF8682002EB400071
:1078200001607047144A126892B202EBC000164A17
:1078300002EB40023F2908460ADB40091F23194298
:1078400000D1401E80B2800240F4004010607047BA
:107850004008C90700D5401C80B280021060704704
:107860000549096889B201EBC000074901EB4000F6
:107870000068C0F309007047505C0040005C0040A5
:1078800008600040046000400C6000400146C0B247
:10789000000240EA11207047704700002DE97C4C3F
:1078A000064647484749D6E9004522462B46FBF79E
:1078B00017FACDE9000100220023FFF71FFEDDE9E2
:1078C000002399BF0020404900204049FEF7CCFB2F
:1078D000CDE9000100216846FEF788FBDDE90023C1
:1078E0000020002100F08AF84ED03949FBF7F8F962
:1078F00082468B464FF0A040364952465B46FBF726
:10790000EFF902460B4620462946FBF785FB044665
:107910000D464FF0C040304952465B46FBF7E0F958
:1079200002460B4620462946FBF776FB04460D46E9
:107930004FF00050294952465B46FBF7D1F9024609
:107940000B4620462946FBF767FB04460D46002000
:10795000234952465B46FBF7C3F902460B462046D5
:107960002946FBF759FB04460D464FF000501D49D0
:1079700052465B46FBF7B4F902460B4620462946C1
:10798000FBF74AFB04460D46C6E90045DDE9000168
:10799000154A164BFBF7A4FD04D3154A154BFFF708
:1079A000ADFD05D80022144B00F038F8CDE90001F8
:1079B000DDE90001FBF728F800F00300BDE8768C54
:1079C00083C8C96D305FE43F0000E03F0000E0BFC6
:1079D0000000303EFB21B941B410114026A6513EB3
:1079E0005C14D33C9A833B3B0000C0FFFFFFDFC128
:1079F0000100C0FFFFFFDF410000E04190420CD1D9
:107A000041EA030C50EA4C0C07D0994205D14FF4DF
:107A1000001C1CEB410F38BF8942704770B540F223
:107A2000FF7601F0004C5B0006EA11545D0D1ABFB1
:107A3000B442B54278E0B3EB410F08BF82424BD26B
:107A4000C3F3530343F48013C1F3130141F48011D2
:107A5000641B0B3C13D9C90241EA5051B1FBF3FE40
:107A600003FB1E11A2FB0EE6DEEBC020B14101D2EA
:107A70008018594150EA010653D00B3CEBD80B3427
:107A8000C4F12006A14020FA06F6A0403143B1FB24
:107A9000F3FE03FB1E11A2FB0EE6B0EB0E00B1419C
:107AA00001D28018594102BF0146203D0020C1B3D8
:107AB000B1FA81F39940C3F1200220FA02F2114396
:107AC0009840ED1A0A3509DBC00A40EA41504CEAF9
:107AD000D12101EB055170BD23D070BDD5F10B054F
:107AE000B5F120020DDAC5F120020300E84001FAE9
:107AF00002F6E940934073F10043704151EB0C01F1
:107B000070BD402D0DDC430821FA02F0C2F12005C2
:107B100011FA05F6334373F1004370415CF1000143
:107B200070BD6146002070BD53EA020E1ABFB44218
:107B3000B54237E0B3EB410F08BF8242CCD25B08BD
:107B4000B3FA83F504BFB2FA82F6AD190B3DB5F175
:107B5000200624BF02FA06F305E0AB40C5F120067B
:107B600022FA06F63343AA40D5F1010524427FF4F8
:107B70006BAF31F00041B1FA81F404BFB0FA80F686
:107B8000A4190B3CB4F1200624BF00FA06F105E06D
:107B9000A140C4F1200620FA06F63143A040D4F1FA
:107BA000010455E74FF4001515EB410F2CBF6FF0A2
:107BB0000041EB4218BF6FF00041BDE87040FEF499
:107BC000C7AA704710B5DFF84848002804D1012043
:107BD00021680882002010BDDFF8380800680068BE
:107BE000804720680A3010BD80B5DFF8240800689F
:107BF000C178DFF8242852780B469A420DD3827858
:107C0000002A0AD18288002A07D18172DFF804088D
:107C1000006840688047002002BD022002BD10B508
:107C2000DFF8EC47002804D10120216808820020F9
:107C300010BDDFF8E00700688068804720680C30DE
:107C400010BD10B5DFF8C8472068C1784079DFF86B
:107C5000CC2712689269904721688A7A002A14D04A
:107C6000002812D1087900280FD1887800280CD17B
:107C7000DFF8A0070068C068804720684179C172BA
:107C80002068C1780173002010BD022010BD10B51E
:107C9000DFF87C170968002803D102200882002041
:107CA00010BDDFF87C470020208008787F2210423A
:107CB0001AD1487A00210246920603D541F002010A
:107CC000217000E021702178400609D541F00100C3
:107CD0002070DFF84007006800698047204610BD2B
:107CE00001F0FE002070F4E700F07F02012A01D1CC
:107CF000204610BD00F07F0002281BD1487900F01B
:107D00000F01DFF82027000652F8210008D500F007
:107D100030001028DDD1002040F001002070D8E7AD
:107D200000F44050B0F5805FD3D1002040F0010056
:107D30002070CEE7002010BDF8B5DFF8D40600684B
:107D4000017811F07F0105D1417A01F0DF01417224
:107D50000020F2BD02295AD14188002957D101796A
:107D6000002954D141796FF0800202EA0105DFF861
:107D7000B4460A0654F8252002D502F0300201E08C
:107D800002F44052DFF890361B789D423FD2002A21
:107D90003DD0807A00283AD0080654F825000BD54B
:107DA00000F0300010282BD12846FFF7E5FC3021E9
:107DB0002846FFF771FC23E000F44050B0F5805FE7
:107DC0001ED148F280064BF68F77002D0DD1DFF8DB
:107DD000580690F82C100020FFF724FD206838404A
:107DE00080F44050304320600AE02846FFF7B2FCA0
:107DF00054F82500384080F44050304344F82500C2
:107E0000DFF810060068406980470020F2BD0220BC
:107E1000F2BD38B5DFF8F805026853796FF08000DD
:107E20001840DFF800161C0651F8204002D504F077
:107E3000300401E004F44054DFF8DC552D78A8420A
:107E400007D25588002D04D1002C02D0927A002A46
:107E500001D1022032BD48F280021B0651F82030C9
:107E600008D548F6BF74234083F010031A4341F845
:107E7000202007E04BF68F74234083F480531A438D
:107E800041F82020DFF88C050068806980470020D9
:107E900032BD80B5DFF878050068417A41F02001F5
:107EA0004172DFF870050068C0698047002002BD9C
:107EB000DFF85C251268538A002804D18888C01A2C
:107EC000108200207047086818447047F8B5DFF842
:107ED0004045206800F110052E88A968080016D0DA
:107EE000002E14D0A888864200D90646304688471E
:107EF00007462888801B2880688830186880002002
:107F0000FFF777FC324601463846FFF7A1FB288889
:107F100000280CD04FF44050DFF8101508800021E5
:107F20000846FFF773FC3020DFF804150880288826
:107F30000146AA88914203D3032021680872F1BD4B
:107F4000010003D0052021680872F1BD10D1062080
:107F5000216808720020DFF8DC14096889B2DFF8B4
:107F6000D82402EB410108603020DFF8C4140880F7
:107F7000F1BD2DE9F041DFF89844206800F11006CA
:107F80003788002F1DD1007A04281AD1DFF8A00409
:107F9000DFF8A8140A78002A0FD00022DFF8943402
:107FA0001B689BB2DFF8905405EB43031A60302244
:107FB00002800425002008702BE007251021018095
:107FC00027E0B088B84201D3042500E002258742AB
:107FD00000D907463846B168884780460020FFF739
:107FE000FAFB3A4601464046FFF71EFB39460020A1
:107FF000FFF70CFC3088C01B308070883818708008
:108000003020DFF82C1408804FF44050DFF81C14A7
:10801000088020680572BDE8F08138B50220DFF8DD
:10802000F04321684D780A787F231A422DD1092D1B
:1080300002D1FFF7D9FD3CE0052D0FD1C87880288B
:1080400008DA8878002805D18888002802D1887A43
:10805000002801D008204BE000202AE0032D08D1A1
:10806000CA78012A25D18988002922D1FFF711FF7A
:108070001FE0012D1DD1CA78012A1AD18A88002A51
:1080800017D1497A89060DD413E002F07F01012946
:1080900004D10B2D0DD1FFF7D4FD0AE0022908D140
:1080A000012D02D1FFF748FE03E0032D01D1FFF7B8
:1080B000B0FE010009D02846DFF86013096849695D
:1080C0008847032801D1092012E0002801D00820A8
:1080D0000EE006200021DFF85C23126892B2DFF880
:1080E000583303EB420211603021DFF84423118042
:1080F0002168087231BD38B5DFF814432068417833
:108100000025062916D101787F22114279D1807885
:10811000012803D1C1480068C56972E0022803D173
:10812000BE480068056A6CE003286AD1BB48006855
:10813000456A66E0002940D14288002A3DD1C288C4
:10814000022A3AD10279002A37D101787F221142DE
:1081500004D18288002A01D1B94D52E001F07F029A
:10816000012A0DD129464079AC4A1268926990479C
:10817000002846D12068807A002842D0B04D40E0E7
:1081800001F07F0102293CD1407900F00F0100F09D
:108190007002A44B000653F8210002D500F0300015
:1081A00001E000F440509C4B1B78994229D2002AF0
:1081B00027D1002825D0A24D23E0082905D1007839
:1081C0007F2108421DD19F4D1BE00A2919D101785A
:1081D00001F07F01012914D1817A002911D0418851
:1081E00000290ED1017900290BD1C188012908D1BC
:1081F00029464079894A126892699047002800D13F
:10820000914D2068290007D00021418220688561B6
:108210000846A847002006E04078804909680969B7
:108220008847032806D02368198A0A464FF6FF7547
:10823000AA4203D109202168087231BD022801D069
:10824000080002D10820187231BD1878000627D521
:10825000D8880090009D8D4202D20098188216E0C6
:108260000B46834213D26D48006890F82C000346F9
:10827000994203D200207149087008E092FBF0F1A6
:1082800000FB1120002802D101206C4908706348CE
:10829000006890F82C0021688882BDE8314068E6CB
:1082A000032018724FF440506049088031BD38B542
:1082B0006048006880B2654901EB4000008864496D
:1082C00011EB4004524D2868017A092911D0217818
:1082D0000170607829684870A088FFF7D7FA29688C
:1082E00048802089FFF7D2FA29688880A089296808
:1082F000C8800120296808722868C088002802D137
:10830000FFF78BFE01E0FFF7F6FEBDE8314048E0E5
:1083100010B53F4C2068017A022901D0042904D10C
:10832000FFF727FE2068007A16E0062913D141786E
:1083300005290AD101787F22114206D1C07800F0C8
:108340004AF834480068006A80473448006880680A
:108350008047082000E0082021680872BDE810402E
:108360001FE010B52A4C2068007A022801D00428AA
:1083700001D1082011E0032801D0052804D1FFF71E
:10838000A5FD2068007A08E0072805D12348006889
:10839000C0688047082000E0082021680872BDE816
:1083A000104080B5204890F82C100020FFF73AFAD2
:1083B00017480068017A082906D14FF480511B4AFA
:1083C000118010211A4A1180007A092801D1012058
:1083D00002BD002002BD70B40F4909780022114C83
:1083E00048F68F760CE01346DBB254F82350354044
:1083F0001D4345F4004545F0800544F82350521CC8
:108400008A42F0D340F080001249086070BC704787
:10841000881E0020901E0020700000208C1E00206E
:10842000241F0020005C0040740000202C1F00204E
:108430002E1F0020505C004004600040351F0020CB
:108440008F7C0008C57B00081F7C00080860004086
:10845000006000404C5C00407047000080B5FEF7B3
:1084600027FB002079490968887200F005F900F0BF
:10847000DBF900207649086001BD80B57348002112
:10848000026891727349C9790268517200210068CB
:10849000C1720846FFF7ECF84FF400710020FFF7B7
:1084A000EEF810210020FFF7F7F840210020FFF739
:1084B00084F980210020FFF771F90020FFF73CF9D3
:1084C000654890F82C100020FFF7ACF90020FFF76A
:1084D00023F900210120FFF7D2F8C0210120FFF786
:1084E0005DF920210120FFF7D7F800210120FFF7D7
:1084F000EBF84FF4C0610220FFF7C1F84FF4807130
:108500000220FFF74BF900210220FFF7DDF82021C0
:108510000220FFF7C1F800210320FFF7B0F84FF465
:1085200088710320FFF749F940210320FFF77AF90A
:108530004FF440510320FFF7C7F800210320FFF755
:10854000ABF80020FFF747FF01204149086001BD5B
:108550004248807A002802D005203D4908607047D3
:1085600004203B49086070473D480178202901D12B
:10857000002101707047704780B50021212809D182
:1085800032480068007800F07F00212810D10FF2F7
:1085900095010DE020280BD12C480068007800F0F0
:1085A0007F00212801D10FF2910120202C4A107068
:1085B000080001D1022002BD244802689161002216
:1085C0000068428210468847002002BD1F490968A2
:1085D000097801F07F01212905D1022801D0222844
:1085E00001D100207047022070471E49FFF760BC90
:1085F0001D49FFF75DBC15490968C978052901DBEC
:1086000000207047194A02EBC101FFF751BC002955
:1086100001D002207047022801DB022070470020B1
:1086200070470000002805D1082008490968088221
:10863000002070470E487047002805D108200349E4
:10864000096808820020704709487047881E00208A
:10865000301F0020BC8B0008740000206C1E00201E
:10866000371F0020C8000020D0000020D8000020C4
:108670006800002030BF704764480121016000217C
:10868000016041604FF4E051614A118001600020B7
:10869000704710B582B00021084600905B48026820
:1086A0005C4C06E05C4B53F821309BB244F821301F
:1086B000491C0829F6D342F4806189B20A46026057
:1086C00041F001010A4602604FF6FE72114001605E
:1086D00042685205FCD54FF6FF32426000224E4CF4
:1086E00006E04C4B53F822309BB244F82230521C27
:1086F000082AF6D341F008010160026842F0040143
:1087000089B2016045490A6800920A68920892009D
:1087100042F001020A60424C226842F004022260E8
:108720004268D20407D4FFF7A5FF20686FF0040168
:108730000840206013BD4EF6FF72426002684FF69B
:10874000F7731A4002600098086020686FF0040117
:108750000840206013BD10B52C4C20684FF6FB710B
:1087600008402060FEF7F6F84FF43F40206010BD4F
:108770000000000010B52B4C072800D02070207896
:10878000052840D8DFE800F0030E151A232E606894
:10879000002804D1FFF7DFFF0620207010BD052060
:1087A000207010BDFFF7D7FF04202070012060600B
:1087B00010BD022060700320207010BD6078401E44
:1087C00060706078002820D10420207010BD0F4810
:1087D000016841F0100189B20160052020700A2073
:1087E000607010BD6078401E6070607800280CD109
:1087F000064801684FF6EF721140016006202070B4
:108800000020606010BD0620207010BD405C00405C
:10881000221F0020D81E0020005C00400070004095
:1088200010ED00E00C1F00200448002141604FF4CF
:108830003F41034A1180016000207047405C0040C6
:10884000221F002070B50C4600F07F052846FFF778
:1088500007F806462846FEF7CCFF0146324620467A
:10886000FEF7F6FE304670BDF8B50020ADF800000A
:10887000604C48F280064BF6BF7729E054F821009F
:10888000ADF80000BDF8000000040DD554F821003B
:1088900040F68F72104044F821005748297800EBC9
:1088A000810050F8040C8047BDF8000000060FD589
:1088B000287854F8201089B248F60F72114044F815
:1088C00020104E48297800EB810050F8040C8047B6
:1088D000616C4B480180090440F18A80018811F0E5
:1088E0000F01484D2970C9D1474D21682980298839
:1088F00001F030016980298801F440512980216804
:1089000089B2394081F4005181F020013143216066
:108910000088C006206820D480B248F60F71084055
:108920002060FFF7F5FC206880B238402988C90430
:1089300001D580F480502988890401D580F4005045
:108940006988C90601D580F010006988890601D5BB
:1089500080F0200030432060F1BDADF80000BDF88C
:108960000000000520D5206840F68F710840206087
:10897000FFF79DFC206880B238402988C90401D5E2
:1089800080F480502988890401D580F400506988DA
:10899000C90601D580F010006988890601D580F0EC
:1089A000200030432060F1BDBDF8000000048FD5E9
:1089B000206840F68F7108402060FFF7D2FC2068E5
:1089C00080B238402988C90401D580F480502988B4
:1089D000890401D580F400506988C90601D580F06A
:1089E00010006988890601D580F02000304320609E
:1089F000F1BD0000005C00404C0000203000002071
:108A0000FA1E0020361F00202C1F0020F0B589B070
:108A10000024494D494E68687080494F70883988F4
:108A20000840800507D54FF6FF5068603078401C3D
:108A3000307000F0A1F8708839880840000401D532
:108A4000FFF712FF708839880840400505D54FF6BA
:108A5000FF3068603B48406880477088398808402C
:108A6000800402D54DF6FF70686070883988084030
:108A7000C00405D54EF6FF7068602046FFF77AFE09
:108A800070883988084000050CD52F4800780028E8
:108A900002D0FFF7FEFD02E00220FFF76BFE4FF26F
:108AA000FF706860708839880840C00541D54FF66E
:108AB000FF606860A868000436D57068401C70606C
:108AC0007068042832D3286800072FD4286880B241
:108AD000B060694606E01D4850F8240080B241F8B5
:108AE0002400641C082CF6D3B06840F00100B0608C
:108AF000B06880B22860B06840084000B060B068DC
:108B000080B2286068684005FCD54FF6FF30686089
:108B100000240E4906E0684650F8240080B241F86F
:108B20002400641C082CF6D3002070600720FFF797
:108B300021FE09B0F0BD00BF405C0040F81E0020DF
:108B4000221F002074000020FF000020005C004075
:108B5000002011490870704710B5104C21460320C1
:108B6000FFF770FE0146C9B22046FDF71DFF032046
:108B7000BDE81040FEF7D0BD09480068052809D1BE
:108B8000084801684A1C0260052903D100210160E0
:108B9000FDF757BF70470000141F0020A41D0020E0
:108BA000301F0020281F0020120100020200004098
:108BB0008304405700020102030100000902430040
:108BC000020100C032090400000102020100052474
:108BD00000100105240100010424020205240600FE
:108BE00001070582030800FF09040100020A0000D2
:108BF0000007050302400000070581024000000055
:108C0000040309042603530054004D006900630067
:108C100072006F0065006C006500630074007200F4
:108C20006F006E00690063007300000032035300A0
:108C300054004D00330032002000560069007200DD
:108C40007400750061006C00200043004F004D006F
:108C5000200050006F00720074002000200000000F
:108C600038B500F045F8C046C046F8F7C3FBFBF73F
:108C7000D2FDF9F783FA1D4C00220C2104F11800F3
:108C8000F8F772F962B601202070257800220D21D4
:108C90002046F8F769F925706420E071207260724F
:108CA00000220C2104F12400F8F75EF90020207462
:108CB0006074A074E0742075FCF70AFCF7F716FAEC
:108CC000FAF756FCFAF7A6FCFCF70AFAFCF7BEF92D
:108CD000FCF703FEFBF74EFDFCF7F1FFF7F71AFA7E
:108CE000F8F70AFDFAF77AFFCFE700BFE41D00208E
:108CF00080B500F006F8FDF725F8BDE80140FDF766
:108D000029B980B5FDF70AFEFDF730FEFDF717FE25
:108D1000BDE8014000F000B80448C06102210172C2
:108D200003490162034A4262086800476C1E002042
:108D300074000020A4000020F0B401684468836837
:108D4000014401EB5402E40748BF4B44914202D175
:108D5000F0BC0C30704711F8015B15F0030604BF3E
:108D600011F8014BE61C2C090F2C07D111F8014B0F
:108D70000F3403E011F8017B03F8017B761EF9D173
:108D8000002CE3D0AD0811F8016B05F00305032DAD
:108D900008BF11F8015B06EB05256D42A41C1D44BC
:108DA000D4D015F8016B03F8016B641EF9D1CDE73F
:108DB0007047FEE7FEE7FEE7FEE770477047704743
:108DC0007047FFF723BE4FF48020FDF768B810B559
:108DD000104C01212046FEF770FB002807D001212E
:108DE0002046C9430182BDE81040FBF75ABB10BDC5
:108DF00010B5094C01212046FEF75FFB002807D083
:108E000001212046C9430182BDE81040FBF76EBC3A
:108E100010BD0000000400400008004019E050F8B8
:108E2000041BCB0744BFA9F101035918121F0023EB
:108E3000042A41F8043BF9D25FEA827C0B4604D550
:108E40004FF0000CA1F800C09B1CD10744BF0021CB
:108E5000197050F8042B002AE1D1704710B507496A
:108E600079441831064C7C44163404E00A68081D25
:108E7000114488470146A142F8D110BD0800000006
:108E80002400000099FFFFFF3816000000090020B1
:108E900000000000A5FEFFFF6C00000024010000A0
:108EA000000000200120C046002801D0FFF7D6FFB7
:108EB0000020C046C046FFF7D3FE00F000F800F0E7
:108EC00001B800000746384600F002F8FBE7000052
:108ED00080B5C046C046024A11001820ABBEFBE771
:108EE0002600020001488047014800472D75000810
:108EF000F58E0008C046C046C046C046FFF7D2FF08
:108F0000FFF7FEBF520001E0160102030406070846
:108F10000900A24A041A03530054004D00330032E2
:108F20000001F0040E518B0008598404F102241052
:108F30000100C2014C100108000407125D10127BF1
:108F400004100369850008770412790412CD041017
:108F5000030F860008EB0812F10412F704217D12BA
:108F600040052140F30951857012611C12A874124A
:108F7000122C12BC0822433910028C00080408127B
:108F80000408122608122C0821CE500314000020D9
:068F90001AD6118B02014C
:0400000508008EF56C
:00000001FF
